:400000000040002011000000C9100000C910000080B500AF01F05CF880B584B000AF021CFB1D1A70204A3B1C0B3312781A701F4A3B1C0A3312781A700423013BFB6018E0C2
:400040001B4B1868391C0B31FA68131C5B009B18C3185B780B70164B1868391C0A31FA68131C5B009B18C3189B780B70FB68013BFB60FB68002B0ADB0D4B1968FA68131CF1
:400080005B009B185B5CFA1D12789A42D8D9094B3A1C0B3212781A60074B3A1C0A3212781A60BD4604B080BDCCF1FF0FCDF1FF0FD80000201CFF0B4020FF0B4080B582B0C0
:4000C00000AF444B12221A600320FFF7A5FF424B03221A60052002F017FA404B404A1278D2B21A60052002F087FC02F0F5FAFA235B00181C02F05CFC012002F0FDFA394B67
:40010000394A1A60394B8022D2051A60384B394A1A60394B384A126808218A431A60FA23DB00181C02F092FA021CFB1D1A70FB1D1B78002B02D0012001F05EF82F4B181CB3
:4001400002F05AFC2E4BB82252011A602D4B2E4A1A602E4B2E4A1A602A4B2E4A1A602E4B802252001A60274B2C4A1A602C4B802252001A60234B2B4A1A602B4B9B22120209
:400180001A60204B294A1A60294B2A4A1A602A4BA62212061A60294B42221A60284B44221A60284B40221A60274B41221A60274B41221A60264B41221A60264B41221A600E
:4001C000254B43221A60034B11221A60BD4602B080BDC046300010402CFF0B4028FF0B40D0F1FF0F04010B40060000800C020B407C002E402D3E00006CF02E40DC05000057
:40020000080301400000014042FF00801003014000973A0044FF00800003014040FF00800403014041FF00800C03014043FF008000010B409200080008010B4038010140B7
:4002400034010140300101402801014024010140200101401C0101400401014080B582B000AF72B65B4B00221A605B4B01221A70FB1D00221A7023E0FB1D1A78131C5B00F2
:400280009B185B00554A9B183B603B681A78597809020A43997809040A43DB781B0613431A1C3B6819795B791B020B439BB2101C191C00F091FFFB1D1A78FB1D01321A7059
:4002C000FB1D1B78012BD7D9454A464B101C191C00F09EFF444BE02212011A80434B01221A70434B434A1A60434BC02292041A60424BCC2292051A60414B00221A60414B9B
:4003000000221A60404BAC221A60404B404A1A60404B20221A60404B7D221A603F4B8022D2021A603E4B3D221A603E4BC0221A603D4B902292031A603C4B3D4A1A603D4BBA
:40034000802212031A603C4B3C4A1A603C4B992212041A603B4BC02292051A603A4B992212041A60394B8022D2051A60384B394A1A60394B394A1A60394B3A4A1A603A4B2B
:400380003A4A1A603A4B02221A603A4B02221A60394B394A1278D2B202210A43D2B21A70364B364A1278D2B23C218A43D2B214210A43D2B21A70304B2F4A1278D2B21621E0
:4003C0000A43D2B21A70FFF779FE00F061FFBD4602B080BD6CF02E401C700F40682B0100742B0100982B010000600F4002600F400001024000339030000202400003024037
:4004000000000240080004400001044008010440880DC30018010440000204400802044018020440000304400803044010500F400400990014500F4018500F400000E0C009
:4004400020500F4028500F4030500F4038500F4020012040E707000060012040F7070000A001204097070000E0012040470700002000104000800F4000700F4001700F4036
:4004800010B5064C2378002B07D1054B002B02D0044800E000BF0123237010BDD803002000000000242A010008B5084B002B03D00748084900E000BF07480368002B03D07C
:4004C000064B002B00D0984708BDC04600000000242A0100DC030020C80000200000000080B582B000AF00F053F9FB1D00221A7062B602F05BF800F0B7F900F045FB01F09C
:4005000085FA8E4B181C01F005FB00F0A3F9F9E08B4B1B78012B00D0F1E08A4B1B78012B00D0B7E0884B1B78012B00D0B2E000F04FFB864B181C01F0EDFA854B1B68181C16
:4005400000F040F9834B181C01F0E4FA824B181C0A2100F043FD7E4B1A687F4B101C191C00F016FDFB1D00221A700DE0FB1D1B780922D31A784AD35C181C01F05DFAFB1DB3
:400580001A78FB1D01321A70FB1D1B78092BEDD900F060F9714B181C01F0BCFA704B1B68181C00F00FF96B4B181C01F0B3FA6D4B181C0A2100F012FD694B1A68694B101C31
:4005C000191C00F0E5FCFB1D00221A700DE0FB1D1B780922D31A634AD35C181C01F02CFAFB1D1A78FB1D01321A70FB1D1B78092BEDD900F02FF95C4B181C01F08BFAFB1DB5
:4006000000221A700DE0FB1D1B780922D31A574AD35C181C01F010FAFB1D1A78FB1D01321A70FB1D1B78092BEDD900F013F9504B181C01F06FFA4F4B1B78181C00F0C2F80B
:4006400000F008F94C4B181C01F064FA494B9B78181C00F0B7F800F0FDF8484B181C01F059FA444B5B78181C00F0ACF800F0F2F8434B181C01F04EFA3E4BDB78181C00F006
:40068000A1F800F0E7F82F4B00221A702E4B00221A7023E0354B181C0A2100F09FFC042000F028FB304B181C01F034FAFB1D00221A700DE0FB1D1B780922D31A2B4AD35CFD
:4006C000181C01F0B9F9FB1D1A78FB1D01321A70FB1D1B78092BEDD900F0BCF8184B00221A70284B1B78012B09D1274B1B781A1C0123134003D01D4B181C00F06FF91D4B5F
:4007000000221A701B4B1B78FF2B00D100E71D4B1B78012B01D100F0A9F91C4B1B78002B05D01A4B00221A70002001F0ADFA03F013FA02F075F9C046E4E7C046802A010002
:400740001C2500205A25002030250020B42A01004C250020D42A010034250020DC2A01004425002050250020FC2A010060250020102B0100182500201C2B01002C2B0100F2
:400780003C2B0100F4030020F5030020F603002080B500AF02F05EF902F0FEF9FF2002F0DBF9FF2002F0E8F9FF2002F077FA062002F094FA062002F0A9FA062002F0BEFAE9
:4007C000BD4680BD80B582B000AF78607B681B0C9BB2181C00F026F87B689BB2181C00F021F8BD4602B080BD80B582B000AF021CFB1D1A70FB1D1B781B09DBB2084AD35C20
:40080000181C01F019F9FB1D1A780F231340044AD35C181C01F010F9BD4602B080BDC046502B010080B582B000AF021CBB1D1A80BB1D1B881B0A9BB2DBB2181CFFF7D4FF16
:40084000BB1D1B88DBB2181CFFF7CEFFBD4602B080BDC04680B500AF0D2001F0EDF80A2001F0EAF8BD4680BD80B500AF024B181C01F0C2F9BD4680BD7D08000080B584B01E
:4008800000AF786039607B68282B21D007D8052B00D186E0262B12D0012B0CD086E0422B28D002D8412B17D080E04C2B3FD0712B00D172E07AE03F4B01221A7076E03E4B63
:4008C0001B78042B03D13B4B01221A706EE06DE0384B01221A7069E0384A3B68111C1A1C0223081C111C1A1C03F021F9344B01221A705BE0324B00221A70324B00221A7021
:40090000314B01221A7000F0B1F8304B00221A702E4B00225A702D4B00229A702B4B0022DA7000F0D1F82A4B01221A703EE03B68FB60FB689B890F2B0DD1FB685B681A7895
:40094000204B1A701F4B1B78012B01D100F070F81D4B01221A70194B18680DF08DF8FB689A891C4B5B899A4216D1FB685B681A78164B1A70FB685B685A78144B5A70FB68F9
:400980005B689A78114B9A70FB685B68DA780F4BDA7000F099F809E008E00D4B00221A7004E03B681A780C4B1A70C046BD4604B080BDC046F6030020742500202025002059
:4009C000F4030020F5030020F703002018250020CC00002048320100F803002080B586B000AF78600F4B1B78002B17D112E03B1C0C330E221A813B1C0C337A681A603B1C41
:400A00000C330A229A80084B3A1C0C321868111C0CF0E8FF054B1B78FF2BE8D0BD4606B080BDC046F8030020202500201825002080B500AF094B1B78002B0DD0084B1B7863
:400A4000002B09D0064B00221A70064B1A78064B101C191C0AF072F9BD4680BDF4030020CC00002020250020D000002080B584B000AF124B1B78002B1DD0104B00221A70BC
:400A80000F4B1A783B1C0C331A703B1C0C3300225A703B1C0F221A813B1C3A1C0C321A603B1C02229A803A1C064B101C00211A1C00230DF01DFCBD4604B080BDF70300201A
:400AC000F50300202025002080B582B000AFFB1D2A4AD2781A70294B1B78FA1D12785343181CFF2102F040FA031C1A1CBB1D1A70224B5B78FA1D12785343181CFF2102F0D1
:400B000033FA031C1A1C7B1D1A701C4B9B78FA1D12785343181CFF2102F026FA031C1A1C3B1D1A70BB1D1B78DB43DBB2181C02F013F87B1D1B78DB43DBB2181C02F01CF86C
:400B40003B1D1B78DB43DBB2181C02F0A7F80C4B13221A810A4B094A1A60094B04229A80074B0422DA80064A064B101C00211A1C00230DF0BDFBBD4602B080BD1825002020
:400B8000242500207C25002080B500AF0D4B181C01F068FB0C4B181C01F0FCFB0B4B181C01F054FC00F0BEFB00F066FD00F0C8FC00F00AFE00F0B0FE01F0DAFB00F0F0FF1E
:400BC000BD4680BD2D100000591000009110000090B583B000AF00237B6000233B60394B1B881A04384B1B88D31801331A1C374B1A60374B1B881A04364B1B88D318013349
:400C00001A1C354B1A60344B1B68002B12D02F4B1B68181C02F0E8FE041C2F4B1B68181C02F0E2FE031C201C191C02F039FA031C7B6001E000237B607868284902F014FC68
:400C4000031C3B60386802F0AFFE031C1A1C244B1A60244B181C0A2100F0C0F93868224902F0F6F9031C002B1BD01D4B1B68181C02F0BAFE031C3868191C02F01FFD031CBB
:400C80003B603868184902F0EFFB031C181C02F08BFE031C9AB2154B1A80032000F02AF80DE03868124902F0D3F9031C002B03D0022000F01FF802E0012000F01BF8BD465F
:400CC00003B090BD5C2500206A2500204C2500203E2500204025002044250020001BB74A482500206025002000007A44322500200024744990B585B000AF021CFB1D1A7035
:400D00003B1C0F3300221A70FB1D1B78032B04D0FB1D1B78042B00D086E09A4B7A221A70984B48225A70974B20229A70FB1D1B78042B05D1944B00221A80944B00221A609B
:400D40003B1C0F3303221A702AE03B1C0F331C788D4B1B88181C0A2102F0FCF80B1C9BB2DAB2884B1A553B1C0F331B783A1C0F32127884498A5C3032D1B2824AD154824B4F
:400D80001B88181C0A2102F0A1F8031C9AB27E4B1A803B1C0F331A783B1C0F3301321A703B1C0F331B78052BCFD93B1C0F331B783A1C0F32591C1170724A2E21D15429E061
:400DC0003B1C0F331C78714B1B68181C0A2102F0C1F80B1CDAB26B4B1A553B1C0F331B783A1C0F32127867498A5C3032D1B2654AD154664B1B68181C0A2102F067F8031C06
:400E00001A1C624B1A603B1C0F331A783B1C0F3301321A705D4B1B68002B04D03B1C0F331B78092BCCD9A9E0FB1D1B78022B4DD1544B7A221A70534B48225A70514B4B2286
:400E40009A703B1C0F3303221A7035E03B1C0F331B78062B23D03B1C0F331C784B4B1B68181C0A2102F076F80B1CDAB2454B1A553B1C0F331B783A1C0F32127841498A5C47
:400E80003032D1B23F4AD154404B1B68181C0A2102F01CF8031C1A1C3C4B1A6005E03B1C0F331B78374A2E21D1543B1C0F331A783B1C0F3301321A70344B1B68002B5DD0F5
:400EC0003B1C0F331B78092BC0D957E02D4B7A221A702C4B48225A702A4B4D229A702B4B1B68181CFA23990001F0F0FF031C1A1C264B1A603B1C0F3303221A7035E03B1CD4
:400F00000F331B78062B23D03B1C0F331C781F4B1B68181C0A2102F01DF80B1CDAB2194B1A553B1C0F331B783A1C0F32127815498A5C3032D1B2134AD154144B1B68181CA4
:400F40000A2101F0C3FF031C1A1C104B1A6005E03B1C0F331B780B4A2E21D1543B1C0F331A783B1C0F3301321A70084B1B68002B04D03B1C0F331B78092BC0D9BD4605B088
:400F800090BDC04660250020322500204825002080B582B000AF7860396018E07B68181C0A2101F0D7FF0B1CDAB23B681A703B681B783033DAB23B681A707B68181C0A2139
:400FC00001F084FF031C7B603B6801333B607B68002BE3D1BD4602B080BDC04680B584B000AF78600A1CFB1C1A703B1C0F3300221A703B1C0F3300221A700CE07B68202205
:401000001A707B6801337B603B1C0F331A783B1C0F3301321A703A1C0F32FB1C12781B789A42EBD3BD4604B080BDC04680B500AF00F03AFA064B1B78002B03D1044B0122F7
:401040001A7002E0034B01221A70BD4680BDC046F90300201C25002080B500AF022000F06FFB00F037FB031C9AB2064B1A8000F095FA031C9AB2044B1A80044B01221A709F
:40108000BD4680BD6A2500205C2500205A25002080B500AF022000F0FBFB00F0C3FB031C9AB2064B1A8000F065FC031C9AB2044B1A80044B01221A70BD4680BD40250020AB
:4010C0003E2500203025002080B500AFFEE7C04680B586B000AF224B7B61224B3B61204B7B6135E03B691B68FB603B695B68BB603B699B683B6000237B600CE0FB681A684C
:40110000BB681A60BB680433BB60FB680433FB607B6804337B607A683B689A42EED13B69DB683B6000237B6008E0BB6800221A60BB680433BB607B6804337B607A683B687D
:401140009A42F2D13B6910333B617B69013B7B617B69002BC6D102F0B5FCFFF7C1F9FEE701000000FC32010080B582B000AF154B144A126801218A431A6000237B600FE09F
:401180007B68032B04D8104B7A689200D35800E00E4B0F4A796889008B507B6801337B607B682F2BECD9FFF759F80A4B00221A60044B044A126801210A431A60BD4602B090
:4011C00080BDC0460000104000000000C910000000000020C000002080B582B000AF786039607A683B68101C00211A1C02F0A8FCBD4602B080BDC04680B582B000AF021C32
:40120000FB1D1A70FB1DFA1D12781A70FEE7C04680B586B000AF7860396000233B6100237B612EE07B699B007A68D3181B68BB603B1C0F33BA681A70BB68FF229343BB6023
:4012400017E03B695B003A68D3181B781A1CBB68D3183A69520039688A1852781A703B6901333B613B1C0F331A783B1C0F33013A1A703B1C0F331B78002BE2D17B69013369
:401280007B617B69082BCDD9BD4606B080BDC04680B500AF0C4B802212061A600B4B03221A600B4B0B4A1A600B4B812252001A600A4B03221A600A4B00221A60012000F055
:4012C00011F8BD4680BDC046000030403000304080003040044020008800304030003140000E3F4080B584B000AF021CFB1D1A700B4B1B68FB60FB1D1B78002B05D0FB68FB
:40130000802212061343FB6003E0FB685B005B08FB60034BFA681A60BD4604B080BDC04680033A4080B500AF064B1B78002B04D100F00AF8034B01221A7000F057F8BD46CB
:4013400080BDC046FA03002090B583B000AF224B1B78DAB2FB1D3F218A431A701E4BFA1D12780C210A43D2B21A701C4B1B4A1278D2B201210A43D2B21A70194B184A127852
:40138000D2B201210A43D2B21A70164B181C00F03DF8144B181C00F057F8134B181C00F063F8042000F070F8BC1D01F0B6F8031C23700B4B0A4A1278D2B210210A43D2B263
:4013C0001A70BB1D1B78181C01F0ABF800F02EF8BD4603B090BDC04673000F4092000F4093000F40FFFF0000FF7F000080B500AF054B054A1278D2B2802149420A43D2B282
:401400001A70BD4680BDC04673000F4080B582B000AF021CBB1D1A80034BBA1D12881A80BD4602B080BDC04604100F4080B500AF01E000F043F800F037F8031C1A1C102329
:401440001340F6D1BD4680BD80B582B000AF021CBB1D1A80034BBA1D12881A80BD4602B080BDC04684100F4080B582B000AF021CBB1D1A80034BBA1D12881A80BD4602B084
:4014800080BDC04644100F4080B582B000AF021CFB1D1A70034BFA1D12781A70BD4602B080BDC04683000F4080B500AF024B1B78DBB2181CBD4680BD63000F4080B500AFD2
:4014C000024B1B889BB2181CBD4680BDA4100F4080B500AF094B802292041A60084B01221A60002000F084F8064B181C00F048F8002000F037F8BD4680BDC04680012040B7
:40150000A4012040FFFF000090B583B000AFFC1D01F003F8031C2370084B084A126804210A431A60FB1D1B78181C00F0FAFF0420182100F03FF8BD4603B090BD0000204010
:4015400080B500AF064B1B78002B04D1FFF7C0FF034B01221A70FFF7D7FFBD4680BDC046FB03002080B582B000AF7860034B7A681204120C1A60BD4602B080BD880120401C
:4015800080B582B000AF7860034B7A681204120C1A60BD4602B080BD9401204080B500AF034B1B681B041B0C181CBD4680BDC0468C01204090B585B000AF786039603C1C24
:4015C0000F3400F0AAFF031C2370084B3A687968081C9040021C1A603B1C0F331B78181C00F09FFFBD4605B090BDC0460800204080B582B000AF7860024B7A681A60BD4600
:4016000002B080BDB801204080B500AF094B802292041A60084B01221A60022000F084F8064B181C00F048F8002000F037F8BD4680BDC0464001204064012040FFFF00009C
:4016400090B583B000AFFC1D00F067FF031C2370084B084A126802210A431A60FB1D1B78181C00F05EFF0220182100F03FF8BD4603B090BD0000204080B500AF064B1B7840
:40168000002B04D1FFF7C0FF034B01221A70FFF7D7FFBD4680BDC046FC03002080B582B000AF7860034B7A681204120C1A60BD4602B080BD4801204080B582B000AF7860F4
:4016C000034B7A681204120C1A60BD4602B080BD5401204080B500AF034B1B681B041B0C181CBD4680BDC0464C01204090B585B000AF786039603C1C0F3400F00EFF031CF2
:401700002370084B3A687968081C9040021C1A603B1C0F331B78181C00F003FFBD4605B090BDC0460800204080B582B000AF7860024B7A681A60BD4602B080BD780120408D
:4017400080B582B000AF7860024B7A681A60BD4602B080BD7001204080B500AF094B802292041A60084B01221A60022000F084F8064B181C00F048F8002000F037F8BD46B0
:4017800080BDC0460001204024012040FFFF000090B583B000AFFC1D00F0BFFE031C2370084B084A126801210A431A60FB1D1B78181C00F0B6FE0120182100F03FF8BD4654
:4017C00003B090BD0000204080B500AF064B1B78002B04D1FFF7C0FF034B01221A70FFF7D7FFBD4680BDC046FD03002080B582B000AF7860034B7A681204120C1A60BD4610
:4018000002B080BD0801204080B582B000AF7860034B7A681204120C1A60BD4602B080BD1401204080B500AF034B1B681B041B0C181CBD4680BDC0460C01204090B585B0C1
:4018400000AF786039603C1C0F3400F066FE031C2370084B3A687968081C9040021C1A603B1C0F331B78181C00F05BFEBD4605B090BDC0460800204080B582B000AF78603B
:40188000024B7A681A60BD4602B080BD3801204080B582B000AF7860024B7A681A60BD4602B080BD3001204080B500AF094B802292041A60084B01221A60002000F084F874
:4018C000064B181C00F048F8002000F037F8BD4680BDC046C0012040E4012040FFFF000090B583B000AFFC1D00F017FE031C2370084B084A126808210A431A60FB1D1B7899
:40190000181C00F00EFE0820182100F03FF8BD4603B090BD0000204080B500AF064B1B78002B04D1FFF7C0FF034B01221A70FFF7D7FFBD4680BDC046FE03002080B582B07A
:4019400000AF7860034B7A681204120C1A60BD4602B080BDC801204080B582B000AF7860034B7A681204120C1A60BD4602B080BDD401204080B500AF034B1B681B041B0CF9
:40198000181CBD4680BDC046CC01204090B585B000AF786039603C1C0F3400F0BEFD031C2370084B3A687968081C9040021C1A603B1C0F331B78181C00F0B3FDBD4605B0D4
:4019C00090BDC0460800204080B582B000AF7860024B7A681A60BD4602B080BDF801204080B500AF00F03EF8BD4680BD80B500AF054B054A1268802109060A431A6000F09C
:401A000017F8BD4680BDC0460000244080B500AF064B1B78002B04D1FFF7E2FF034B01221A70FFF7E3FFBD4680BDC0460004002080B500AFBD4680BD80B582B000AF7860FF
:401A4000C046064B1A681F231340082BF9D0044B7A681A60BD4602B080BDC046080224404002244080B500AF184B194A1A60194B00221A60184B01221A60184B07221A601B
:401A8000174B07221A60174B00221A60164B01221A60164B164A1A60164B00221A60164B04221A60154B00221A60154B00221A60144B00221A60144B00221A60134B00227E
:401AC0001A60134B00221A60BD4680BD000024400F00000240002440480024400003244004032440100324404400244000022440070000800402244050002440880E244077
:401B0000C80E2440480F2440080F2440C80F2440880F244080B584B000AF78600023FB6009E07A68FB68D3181B78181CFFF784FFFB680133FB607A68FB68D3181B78002B58
:401B4000EFD1BD4604B080BD80B500AF074B03221A60074B802212061A60064B04221A60054B03221A60BD4680BDC0460C0400200000304008003040140F304080B500AFA1
:401B8000054B054A1168054A12680A43802109010A431A60BD4680BD080030400C04002080B500AF064B1B78002B04D1FFF7CCFF034B01221A70FFF7E1FFBD4680BDC046FD
:401BC0000804002080B500AF064B00221A70064B00221A70054B00221A7000F009F8BD4680BDC0467F250020782500207E25002080B500AFBD4680BD90B585B000AF78603F
:401C00003B1C0E3301221A80194B1B78002B04D1FFF7D8FF164B01221A707B68002B1FD0144B7A681A603C1C0E34134A134B101C191C172201F0A6FF031C23803B1C0E33E6
:401C40001B88002B0CD10E4B01221A703C1C0E340C4B181C142112220CF032FB031C23803B1C0E331B88181CBD4605B090BDC046100400206C250020A91F000018040020D7
:401C800074250020B42E010090B585B000AF021CFB1D1A702A4B1B78042B44D1294B1B78DBB21A1C042313403DD1FB1D1B78002B0DD1254B1E221A82234B5B6890225200CC
:401CC0001A80214B5B68A02252005A8010E0FB1D1B78012B0CD11C4B96221A821A4B5B68C822D2001A80184B5B688022D2015A80164BFA1D12781A703C1C0E34124B181C24
:401D00000AF02CFD031C23803B1C0E331B88002B08D10C4B1B78DBB204221343DAB2094B1A7005E004E03B1C0E33832252001A803B1C0E331B88181CBD4605B090BDC046B6
:401D4000742500207F2500202C0100207E25002080B584B000AF78600A1CFB1C1A700023BB60BB68002B20D07B689A79BB681A703B1C0F3300221A7012E03B1C0F331B789D
:401D80000133BA68D3183A1C0F32127879688A5C1A703B1C0F331A783B1C0F3301321A703B1C0F331B78052BE7D9BD4604B080BD80B582B000AF78607B681B781A1C7B6862
:401DC00001331B781B029BB213439BB2181CBD4602B080BD90B585B000AF78603B1C0F3300221A707B689A890B239A4237D17B681A1D7B683C1C0F34101C00211A1C40230D
:401E00000CF076FA031C23703B1C0F331B78002B1DD17B685B68181CFFF7CAFF031C1A1C022313409BB2002B08D0104B1B68822251007A68081C111C984708E00B4B1B68E3
:401E40000622111CFF317A68081C111C9847084B1B78DBB201229343DAB2054B1A703B1C0F331B78181CBD4605B090BD6C2500207F25002090B585B000AF78603C1C0F3483
:401E80007B68181CFFF7A6FF031C2370144B1B78DBB21A1C012313401FD13B1C0F331B78002B16D03B1C083312229A707B689A893B1C08331A803B1C08333A1C0F321278B0
:401EC000DA707B683A1C08321868111C0BF06CFD03E07B6818680BF0CFFDBD4605B090BD7F25002080B582B000AF7860BD4602B080BDC04680B500AF034B00225A70024BED
:401F000000221A70BD4680BD7C25002080B582B000AF7860BD4602B080BDC04680B500AFBD4680BD80B584B000AF78603B1C0E3300221A707B689B79002B1CD13B1C0F330E
:401F400000221A7012E03B1C0F331B787A68D35C002B04D03B1C0E3301221A700BE03B1C0F331A783B1C0F3301321A703B1C0F331B78052BE7D93B1C0E331B78181CBD4658
:401F800004B080BD80B582B000AF021CBB1D1A80BD4602B080BDC04680B582B000AF7860BD4602B080BDC04680B584B000AF021C3960FB1D1A709D4B1B78DBB201221343BA
:401FC000DAB29A4B1A70FB1D1B78712B00D911E19A00974BD3181B689F463B1C0C3307221A703B1C0C3300225A703B1C0C33181C03F02EF83B1C0C3307221A703B1C0C3378
:4020000001225A703B1C0C33181C03F021F8894B1B68181CFFF786FF031C002B11D0854B1B68181C01F09CFD824B1B68181C0021FFF78EFE7F4B1B68181C0121FFF788FE55
:4020400019E07D4B1A787D4B1A707D4B1A787B4B5A707C4B1A78794B9A70784B181C01F07FFD764B181C0021FFF772FE734B181C0121FFF76DFE03200AF032FA724B042229
:402080001A70B8E03B68181CFFF740FFB3E03B681A786E4B1A70AEE0644B1B78DBB21A1C202313400ED16A4B1B78102B02D1684B0522DA70674B1A78654B101C191C0AF016
:4020C00017FB98E097E03B68181CFFF765FF92E03B68181CFFF760FF5B4B02221A708AE0594B04221A7086E0574B1B78022B34D04E4B1B78DBB21A1C012313402DD04B4B39
:402100001B78DBB21A1C042313400BD04E4B03221A70464B1B78DBB204229343DAB2434B1A701AE0414B1B78DBB21A1C082313400BD0454B04221A703C4B1B78DBB2082215
:402140009343DAB2394B1A7007E03F4B1B78032B03D13D4B04221A704DE04CE03B681B88181CFFF70FFF46E03A4A3B68111C1A1C0223081C111C1A1C01F0D9FC354B1B78A5
:402180009A00354BD318354A111C1A1C0423081C111C1A1C01F0CBFCFFF7C0FE2BE0FFF7A9FE28E03B685B88162B05D83B1C0E333A6852881A8003E03B1C0E3317221A80CE
:4021C0003B683A1C0E321288198800230904090C1B0C1B040B43181C111C0BF0F1FB0AE03B68181CFFF746FE05E03B68181CFFF779FE00E0C0460D4B1B78DBB21A1C11235E
:4022000013400FD0094B1B78DBB201229343DAB2064B1A70124B1B68FA1D11783A68081C111C9847BD4604B080BDC0467F25002080300100480100207CF1FF0F4001002092
:402240007DF1FF0F7BF1FF0F7425002078250020980100207C250020802E0100702500206C25002080B582B000AF786000F04AF87B68181C00F008F8032000F011F800F030
:4022800037F8BD4602B080BD80B582B000AF7860024B7A685A64BD4602B080BD0000002090B585B000AF021CFB1D1A700E23FB603C1C0B3400F031F9031C23700A4B0A4A8F
:4022C00011680A4A1140FA1D1078FA68041C9440221C0A431A603B1C0B331B78181C00F020F9BD4605B090BD00E400E0FF3FFFFF80B500AF024B02221A60BD4680BDC04647
:4023000000E100E080B500AF024B02221A60BD4680BDC04680E100E080B500AF074B03221A60074B802212061A60064B04221A60054B03221A60BD4680BDC046B410002021
:402340000000304004003040080F304080B500AF054B054A1168054A12680A43802109010A431A60BD4680BD04003040B410002080B500AF064B1B78002B04D1FFF7CCFF4D
:40238000034B01221A70FFF7E1FFBD4680BDC046B010002080B582B000AF786000F04CF87B68181C00F008F8032000F013F800F039F8BD4602B080BD80B582B000AF7860DE
:4023C000034A88237968D150BD4602B080BDC0460000002090B585B000AF021CFB1D1A701623FB603C1C0B3400F097F8031C23700A4B0A4A11680A4A1140FA1D1078FA68BE
:40240000041C9440221C0A431A603B1C0B331B78181C00F086F8BD4605B090BD10E400E0FFFF3FFF80B500AF024B8022D2021A60BD4680BD00E100E080B500AF024B8022CF
:40244000D2021A60BD4680BD80E100E080B582B000AF786000F04CF87B68181C00F008F8032000F013F800F039F8BD4602B080BD80B582B000AF7860034A84237968D1504F
:40248000BD4602B080BDC0460000002090B585B000AF021CFB1D1A700E23FB603C1C0B3400F03BF8031C23700A4B0A4A11680A4A1140FA1D1078FA68041C9440221C0A43DC
:4024C0001A603B1C0B331B78181C00F02AF8BD4605B090BD10E400E0FF3FFFFF80B500AF024B802292021A60BD4680BD00E100E080B500AF024B802292021A60BD4680BDDC
:4025000080E100E0000000000230800803D00138FDD1C046C046C0467047EFF3108072B6704780F31088704780B500AF0B4B0B4A126801218A431A60094B094A1268302106
:402540008A4310210A431A60054B054A126807218A4301210A431A60BD4680BD00F02E4000FF2E4080B500AF0E4B0E4A126802218A431A600C4B0C4A126807218A430221DC
:402580000A431A60084B084A126830218A4320210A431A60034B034A126801210A431A60BD4680BD00F02E4000FF2E4090B583B000AF00F0C1F8031C002B24D100F028F8E7
:4025C000031C002B1FD000F031F8031C002B14D1FC1DFFF7A2FF031C237000F073F90B4B0A4A1268520052081A6000F0B9F9FB1D1B78181CFFF795FF05E0044B034A12684C
:40260000520052081A60BD4603B090BD04010B4080B500AF044B1B68002B01DA012300E00023181CBD4680BD04010B4080B582B000AF054B1B689B0F9B077B607B68181C53
:40264000BD4602B080BDC0460C020B4080B584B000AF78600023FB60154B154A126801210A431A60134B144A1A60144B134A1268802109020A431A607B68002B13D0102376
:40268000FB600DE0012000F0B7F900F019F8031C002B02D00023FB6005E07B68013B7B607B68002BEED1FB68181CBD4604B080BD60F02E4078002E400220000010002E40FB
:4026C00080B500AF034B1A6801231340181CBD4680BDC0460C002E4080B500AFFFF724FF044B044A1268802109060A431A60BD4680BDC04600F02E4080B584B000AF78609C
:402700000C4B1A6801231340FB607B68002B02D0012B03D005E0FFF707FF06E0FFF722FF03E0002000F03AF9C046FB68181CBD4604B080BD00F02E4080B500AF054B1A6866
:40274000C0231B02134001D0012300E00023181CBD4680BD00010B4080B582B000AF78607B68022B02D9002000F018F9054B1A687B68DB000133DA4001231340181CBD46C8
:4027800002B080BD10020B4080B584B000AF786039607B68022B02D9002000F0FFF87B68181CFFF7D9FF031C002B18D10D4B1B687A68D2000321081C9040021CD24313400D
:4027C000FB603A6803231A407B68DB00111C99400B1CFA681343FB60024BFA681A60BD4604B080BD0C020B4080B582B000AF7860054B1A687B68DB00DA4003231340181CA3
:40280000BD4602B080BDC0460C020B4080B582B000AF7860154B154A11687A680A431A607A680123134006D0C0460020FFF794FF031C002BF9D07A6880235B00134006D07E
:40284000C0460120FFF788FF031C002BF9D07A6880235B02134006D0C0460220FFF77CFF031C002BF9D0BD4602B080BD10020B4080B584B000AF78600023FB607B68012B1E
:4028800009D002D3022B0BD00EE00C4B1B681B041B0CFB600CE0094B1B681B0CFB6007E0074B1B68FB6003E0002000F077F8C046FB68181CBD4604B080BDC04600020B4057
:4028C00004020B4080B582B000AF0020FFF744FF031C002B03D01F4B00221A6026E00120FFF73AFF031C002B03D01A4B01221A601CE00220FFF730FF031C002B03D0154BC0
:4029000002221A6012E0144B01221A60114B00221A600020FFF768FF021C104B1A6000200021FFF731FF0120FFF770FF094B1B68181CFFF79DFF031C7B60C046054B1B6846
:40294000181CFFF795FF021C7B689A42F6D0BD4602B080BDBC100020B8100020C010002080B500AF0A4B1B68002B0ED0094B094A126801218A431A60074B1B680020191CC7
:40298000FFF702FF024B00221A60BD4680BDC046B810002010020B40C010002080B582B000AF021CFB1D1A7001BEBD4602B080BD80B582B000AF786008E00C4B1B68181C51
:4029C000FFF7A2FD7B680A4A9B187B607A6880231B029A42F1D8074B1B687A685343181CFFF792FDBD4602B080BDC046A80100200080FFFFA001002080B582B000AF021CFC
:402A0000BB1D1A80BB1D1B88044A12785343181CFFF77AFDBD4602B080BDC046A401002090B583B000AFFC1DFFF777FD031C2370074B074A126804218A431A6030BFFB1DF1
:402A40001B78181CFFF76DFDBD4603B090BDC04610ED00E080B500AF064B1B78002B04D100F00AF8034B01221A7000F03DF8BD4680BDC046DC10002090B583B000AFFF20D7
:402A800000F040F8B82000F057F8012000F064F8012000F071F8FC1DFFF73FFD031C23700F4B0F4A1278D2B201210A43D2B21A70FB1D1B78181CFFF734FD0A4B094A12787D
:402AC000D2B202218A43D2B21A70064B054A1278D2B204218A43D2B21A70BD4603B090BD90000F4070000F4080B500AF044B044A1278D2B201210A43D2B21A70BD4680BDB9
:402B000070000F4080B582B000AF021CFB1D1A70FB1D1B78002B07D0054BFA1D12781A70044BFA1D12781A70BD4602B080BDC04640000F4000000F4080B582B000AF021C54
:402B4000FB1D1A70034BFA1D12781A70BD4602B080BDC04610000F4080B582B000AF021CFB1D1A70034BFA1D12781A70BD4602B080BDC04620000F4080B582B000AF021CF9
:402B8000FB1D1A70034BFA1D12781A70BD4602B080BDC04630000F4080B500AF064B1B78002B04D100F00AF8034B01221A7000F03DF8BD4680BDC046DD10002090B583B0DE
:402BC00000AFFF2000F040F8B82000F057F8012000F064F8012000F071F8FC1DFFF79DFC031C23700F4B0F4A1278D2B201210A43D2B21A70FB1D1B78181CFFF792FC0A4B91
:402C0000094A1278D2B202218A43D2B21A70064B054A1278D2B204218A43D2B21A70BD4603B090BD91000F4071000F4080B500AF044B044A1278D2B201210A43D2B21A70D8
:402C4000BD4680BD71000F4080B582B000AF021CFB1D1A70FB1D1B78002B07D0054BFA1D12781A70044BFA1D12781A70BD4602B080BDC04641000F4001000F4080B582B09D
:402C800000AF021CFB1D1A70034BFA1D12781A70BD4602B080BDC04611000F4080B582B000AF021CFB1D1A70034BFA1D12781A70BD4602B080BDC04621000F4080B582B0B6
:402CC00000AF021CFB1D1A70034BFA1D12781A70BD4602B080BDC04631000F4080B582B000AF021CFB1D1A70064B064A1168064A1140FA1D127892040A431A60BD4602B030
:402D000080BDC04608020440FFFFE3FF80B582B000AF021CFB1D1A70064B064A1168064A1140FA1D127892040A431A60BD4602B080BDC04608030440FFFFE3FF80B582B005
:402D400000AF021CFB1D1A70064B064A1168064A1140FA1D127852050A431A60BD4602B080BDC04608030440FFFF1FFF80B582B000AF78600A1CBB1C1A80BB1C1A887B6826
:402D80001A60BD4602B080BD80B582B000AF78600A1CBB1C1A80BB1C1A887B681A60BD4602B080BD80B582B000AF021CBB1D1A80BB1D1B88181CFFF71FFEBD4602B080BD00
:402DC00080B500AF00F068F8BD4680BD80B500AF00F06CF8BD4680BD80B500AF00F066F8044B181C00F024F8022000F02DF8BD4680BDC046C12E000080B500AF024B181C55
:402E000000F004F8BD4680BDC12E000080B582B000AF786000F04AF87B68181C00F008F8022000F011F800F037F8BD4602B080BD80B582B000AF7860024B7A681A67BD4683
:402E400002B080BD0000002090B585B000AF021CFB1D1A700623FB603C1C0B34FFF75DFB031C23700B4B0B4A1268C021101C8843011CFA1D1078FA68041C9440221C0A43A5
:402E80001A603B1C0B331B78181CFFF74AFBBD4605B090BD0CE400E080B500AF024B802252011A60BD4680BD00E100E080B500AF024B802252011A60BD4680BD80E100E06A
:402EC00080B500AF0FF09AFDBD4680BD002934D00123002210B488422CD301242407A14204D2814202D209011B01F8E7E400A14204D2814202D249005B00F8E7884201D31E
:402F0000401A1A434C08A04202D3001B5C0822438C08A04202D3001B9C082243CC08A04202D3001BDC082243002803D01B0901D00909E3E7101C10BC7047002801D00020F9
:402F4000C04307B4024802A14018029003BDC046D90000000029F0D003B5FFF7B9FF0EBC4243891A1847C046002941D010B4041C4C40A44601230022002900D549420028EC
:402F800000D5404288422CD301242407A14204D2814202D209011B01F8E7E400A14204D2814202D249005B00F8E7884201D3401A1A434C08A04202D3001B5C0822438C08BD
:402FC000A04202D3001B9C082243CC08A04202D3001BDC082243002803D01B0901D00909E3E7101C6446002C00D5404210BC7047002806D003DB0020C043400801E0802097
:40300000000607B4024802A14018029003BDC046190000000029EBD003B5FFF7A7FF0EBC4243891A1847C0467047C0468446081C6146FFE71FB500F0CBF9002801D40021AC
:40304000C8421FBD10B500F051F94042013010BD10B500F0BDF9002801DB002010BD012010BDC04610B500F0B3F9002801DD002010BD012010BDC04610B500F061F900281C
:4030800001DC002010BD012010BDC04610B500F057F9002801DA002010BD012010BDC046F0B55F4656464D464446F0B446024500C00F85B00F1C760A2D0E804641D0FF2D48
:4030C00026D08024240400212643F6007F3D89468B46F90F7C027800640A000E00918A463CD0FF2834D080231B041C430023E4007F380193009F4346019A7B4049469C46BE
:4031000011430F2900D971E0764F89007F58BF46002E3ED10822022391469B46D9E75A46341CC24601920199022937D0032900D1CFE0012900D0ABE053460B4000220026F7
:4031400032E0002E19D10421012289469346C0E7221C531E9A4102320192CBE701270197002CC7D0201C00F08FFC431F9C4076235B420021181A0191BCE7301C00F084FC99
:403180007625431F9E406D4200232D1A99469B469FE70C23032199468B469AE7D446012367463B40FF2200267602D205700ADB071043184305B03CBC90469946A246AB4610
:4031C000F0BD80260023F603FF22EDE700220026EAE78020C00306423BD0044239D1061C26437602760A009BFF22DDE7281A039076016401A64239D3361B1A2201230120D2
:40320000311C5B007600002901DBB44201D8361B0343013A002AF3DC741EA641341C1C43039A7F32002A27DD630704D00F232340042B00D00434270103D52B4B039A1C40B4
:403240008032FE2A0BDD012361460B40FF220026AAE706437602760A4346FF22A4E7A40101236746660AD2B23B409DE7039F1B22013F03970023C2E77E23039F5B42DB1B64
:403280001B2B07DD012361460B40002200268BE7D446C5E7221CDA40039B9E339C40231C5C1EA34113435A0704D00F221A40042A00D004335F0105D5012361460B40012250
:4032C000002671E79E01624601231340760A00226AE78026F60326437602760A5346FF2262E7C04658320100FFFFFFF74A02430270B55C0A550A43004A001B0EC60F120EF1
:40330000C90FFF2B05D0FF2A08D0012093420BD070BD0120002CFBD1FF2AF6D10120002DF6D101209342F3D1AC42F1D18E4205D0002BEDD1201C441EA041E9E70020E7E764
:403340004A024302F0B55C0A550A43004A001B0EC60F120EC90FFF2B31D0FF2A34D0002B16D1604260418446002A14D0002820D18E4217D1934215DC04DBAC4212D80020DC
:40338000AC4212D2704270414042012318430CE0002AEDD194466F426F416046002805D1002FE5D0704201231843F0BD0020002FFBD148424841404201231843F5E7002C2B
:4033C000CBD002204042F0E7002DC8D0F9E7C0464A024302F0B55C0A550A43004A001B0EC60F120EC90FFF2B27D0FF2A29D0002B10D0002A15D194466F426F416046002827
:4034000015D00020002F04D148424841404201231843F0BD604260418446002AECD00028F2D18E4211D0704201231843F1E7002FF7D0704201231843EBE70220002CE8D12A
:40344000D3E70220002DE4D1D1E79342EBDC04DBAC42E8D80020AC42DBD270427041404201231843D5E7C046F0B55F4656464D464446F0B44402460083B00F1C640A360E89
:40348000C50F002E41D0FF2E22D080231B0400201C43E4007F3E82468046391C4B007F02C90F7F0A1B0E8B463BD0FF2B34D0802212041743FF007F3B00215A466A400192EC
:4034C00052460A430F2A63D87A48920082589746002C3FD10822022392469846DDE70195404602282AD1019A01251540FF2300246402DB05600AED071843284303B03CBCB1
:4035000090469946A246AB46F0BD002C27D10420012282469046C0E7391C4A1E91410231CBE70121002FC8D0381C00F0ADFA431F9F4076235B421B1A0021BEE7032800D1EA
:40354000AEE001284FD1019842461040C5B200230024CDE70C2303209A4680469DE7201C00F092FA7626431F9C4076420023361A9A46984691E780240025E403FF23B7E7B2
:403580005B463C1C01938846AAE73C1C8846A7E7250C24043A0C240C3F04F6183F0C211C231C794353436F435543FB180A0C9B18B1469F4202D980225202AD1809041A0473
:4035C000090C521894011B0C611E8C41920EED181443AD012C43230105D5012263080120144081441C434B467F33002B2DDD600704D00F222240042A00D00434220103D58F
:403600002D4B1C404B468033FE2B17DD019B01251D400024FF236BE78020C003044208D0074206D1041C3C436402640A5D46FF235EE704436402640AFF2359E70198A401C5
:403640000125640ADBB2054052E77E235B424A469B1A1B2B05DD019B01251D400024002346E7221CDA404B469E339C40231C5C1EA3411343580704D00F221A40042A00D028
:4036800004335A0105D5019B01251D40002401232EE701989C010125640A0540002327E78027FF03019B3C43640201251D40640AFF231DE798320100FFFFFFF7F8B5C20F64
:4036C000430244004D024800240E161C9B09000EC90FAD09FF2800D183E0012779408A425CD0221A002A00DC8EE000281ED1002D00D07AE0580704D00F221A40042A00D0F8
:4037000004338021C90401221940324000293AD00134FF2C00D183E09B015B0A5B02E4B2E405580AD20720431043F8BDFF2CE1D08021C9040D431B2A00DD31E1291C202059
:40374000D140821A95406A1E95410D435B1B5801D0D59B019F09381C00F096F9421F974094425FDC141B1F231B1B3A1C9F40611C3B1CCA405F1EBB4113430024BAE7131EC6
:40378000B8D100230022DB08FF2C04D1002B47D08020C00303435B025B0ABFE7211A002944DD002827D0FF2CA4D08020C00405431B2900DDF2E0281C2027C840791A8D4030
:4037C000691E8D4105435B19590100D492E70134FF2C59D0734901221A400B405B08134388E7002D00D07AE777E7013A002AADD0FF2CA0D17EE7002D00D17BE7013900297A
:40380000E1D0FF2CD4D175E7002A1BD1621CD2B2012A4BDD5F1B7A0123D5EF1A0E1C9AE700237BE75F4BA41A3B4063E7002946D1611CC8B2012829DDFF2924D0EB185B0805
:403840000C1C57E7002C13D0FF2818D08024E404524223431B2A4DDD0123EB1A041C0E1C75E7002F00D076E70023002200248AE7002B3BD0D243002AEFD0FF28EAD12B1C6D
:40388000FF240E1C36E7FF2400237CE7002C5CD1002B00D180E0002D00D12BE75B19580100D427E73F4A0124134023E7002C15D1002B40D1002D63D02B1C0E1C1AE7002C2A
:4038C00021D1002B54D0C943002904D0FF284CD01B2958DD01235B19041C75E7002B19D1002D48D02B1C0E1CFF2403E72B1C041C0E1CFFE61C1C2026D440B21A93405A1EB7
:4039000093412343A9E7FF282FD08024E40449422343DDE7FF24002D00D1EBE68022DB08D203134204D0ED08154201D12B1C0E1CDB00FF24DEE6002D00D1DBE65A1B50010B
:4039400000D41CE7EB1A0E1CD4E6002B0DD0FF24002D00D1CEE68022DB08D2031342E7D0ED081542E4D12B1CE2E72B1CFF24C1E62B1C041CBEE6802300229B04FF2402E7A7
:40398000231C0022FFE61C1C2027CC40791A8B40591E8B4123439EE72B1CABE6012512E70125D3E6FFFFFFFB4302590A4300C20F1B0E00207E2B0DDD9D2B0CDC80200004F0
:4039C0000143952B0ADC9620C31AD9404842002A00D1081C7047034BD018FBE7963B9940F4E7C046FFFFFF7F10B5041E33D000F04BF89E231B1A962B09DC0838844064028F
:403A0000640ADBB26402DB05600A184310BD992B0ADD0522121A211CD1400A1C011C1B318C40611E8C411443052801DD421F9440144A2240610704D00F210C40042C00D0B1
:403A4000043251010AD59F23181AFF2816D09401640AC3B2D6E700230024D3E7D208FF2B03D05402640ADBB2CCE7002A06D08024E40314436402640AFF23C3E7FF23002405
:403A8000C0E7C046FFFFFFFB1C2101231B04984201D3000C10391B0A984201D3000A08391B09984201D30009043902A2105C40187047C04604030202010101010000000074
:403AC0000000000070B50E4B0E4D0024ED1AAD101E1CAC4204D0A300F35898470134F8E70FF0FAFB084B094D0024ED1AAD101E1CAC4204D0A300F35898470134F8E770BD99
:403B0000E4320100E4320100E4320100EC32010030B50023934208D0C55C0133CC18013C2478A542F6D0281B00E0002030BD10B50023934203D0CC5CC4540133F9E710BDCC
:403B4000031C8218934202D019700133FAE7704710B501F019FA10BD10B500F0DBF810BD10B50749044609780220002907D1204601F030FA002802D1204608F09BFD10BD63
:403B8000BE020020F7B51F4E0024307815460F46002804D00824B76075802046FEBD002F00D1012401F0F0F90098002805D0172D03D301204002854201D90124EBE7002C66
:403BC000E9D12946384600F023F80400E3D1706800F01CF80400DED1706800F015F80400D9D101F0D9F90400D5D1009806F05CF80400D0D106F06EF80400CCD10120307097
:403C0000C9E70000AC0100200020704700207047F8B50D4607460026FFF7EEF8FFF7D6F800F02EFA040065D100F0B8FB040061D13449084600F08AFD0404240C5AD1A807C7
:403C400005D0A807800F0421081A401985B2172D02D968002E3886B22B48301881B2384601F076F8040045D1284F03460246002825D127495E008E5B294610318E4207D913
:403C80009000C01941800221521C4170D2B215E08E420BD10020787690001D49C0194680891FC95C891C4170012012E0052A06D1164806461436418302207071012014495B
:403CC0005E008E5B9100C9194E80114EB61FF65C4E705B1C521CDBB2D2B2062BC7D30B4800F06CF8002C05D100F084F807490120891E087000F0D6F9002C01D0FF20F8BD02
:403D00000020F8BD293D0000940C0000BA0100208633010010B503480078012801D100F0A7FE10BDB80100207047000010B5011F0878034A8000105800F0AAFF10BD00009E
:403D4000E010002010B5044604498000085800F00DFF002801D00470001D10BDE010002038B5044692B2C9B2684600F025FF024AA1000098505038BDE010002070B50B4939
:403D8000064600204C6805466178002908D06188B14202D32078FFF7D5FF002804D1241D6D1CEDB2082DEFD370BD0000DC01002010B5002801D0FFF7B9FF10BD70B50B4E6D
:403DC0000446002570606178002905D062882078121D0023FFF7C4FF6D1C241DEDB2082DF1D3024800F0A6FFB06070BDDC010020002070471CB5002469460C7014200190E9
:403E00002346054A05480CF0E5F904480068401C00D1FF2420461CBD713E0000E80100203EB5124A0146FF2000230124126800290DD0012914D0042908D1042069460093B1
:403E400008814B8110460CF0C0F980B23EBD6846009304814381694610460CF0B1F9F4E768460093048143816946EBE7E801002070B54589046841680089030000F026F8EF
:403E800006240408081D2124002004F0E3FE1BE0022908D0C8B22A4621460AF087FC2046FFF786FF10E002202A4621460AF07EFC2946204600F018F806E000200BF07EFE11
:403EC00002E020460CF00CFA002070BD30B47446641E2578641CAB4200D21D46635D5B00E31830BC18470000014B0022DB681847EC01002070B5448905680089022803D069
:403F0000032809D0FF2070BD2246094C0023A46829460120A04708E0FFF71AFE241DA2B200232946022005F0A2FD002070BD0000EC0100207047000002480021416001805D
:403F400041807047EC01002070B50C46002186B016460391012802D0022859D116E003A9012005F0DCFD01281BD1039D324621462846FFF7DCFD00952878019002206946B6
:403F800008814E816846FFF7B5FF41E0214D002B686809D0049004A9022005F0C0FD01281DD0022006B070BD002812D0298840182146FFF7BCFD28880024801980B228804E
:403FC0006988091D884206D12C801348FFF792FF03E00320E6E788421AD96C6018E004986860E278A378110219430B4A698000231060E3565360032313815181A17881708C
:40400000E178C1706178417021780170042028800020C7E7EC010020001100203EB515460C46022803D004280CD000203EBD0091019002206946088107484A8100680CF0D0
:40404000C4F807E00AF0B2FB044B0022DB6829462046984701203EBDE8010020EC010020014AD16090607047EC010020034801688068081A0A214843000970470C110020BB
:4040800010B5FEF7A9FE542204490548FFF74FFD03490120C870002010BD0000963301005C13002010B5FEF78BFE10BD70B5134C2368002B08D0207B1149C20705D0400865
:4040C000400020738868A08070BD88680B4AA18880B29268814203D90A4D691A091802E0814202D2411A5118A160A080A0689842EAD300F015F80CF085F870BD0C1100209F
:40410000C0102E40FFFF000010B508461946FFF7A7FF10BD704710B5FFF780FF10BD000003480021016041608160C160704700000C11002010B502000DD0FFF7F1FF074C69
:404140000321207B0843207310010A21FEF702FF2060002010BDFF2010BD00000C11002000B504480A21806848430209FFF7D8FF104600BD0C1100200248007B8007C00FF8
:40418000704700000C11002070B558490868002802DA574B01221A70022290430860554800695249C00B4031096A08426CD0012000F078FA4F4850497C30FEF7E5FD4B4884
:4041C0000E216C30FEF7E0FD4A4820218430FEF7DBFD484814219C30FEF7D6FD4548FF21C131A430FEF7D0FD4248FF212F31B030FEF7CAFD3F484149BC30FEF7C5FD3D4861
:404200003F49AC30FEF7C0FD3D493A48491CB430FEF7BAFD37483B49B830FEF7B5FD35483949CC30FEF7B0FD324838490830FEF7ABFD30483649A830FEF7A6FD2D48354912
:404240008830FEF7A1FD2B4833498C30FEF79CFD28481921C9029030FEF796FD2F4D287E697E0C020443A87FE97F2D4A090201432C48914201D1072C08D035229201914269
:4042800008D1042C05D005E0FF2070BD0146042400E0014617486C30FEF776FD154821467430FEF771FDA87EE97E0902014301204003814201D0002900D11B490D487830FC
:4042C000FEF762FD2A7F687F010218481143814204D01748814201D0052901D113490A3904488030FEF750FD002070BD00F02E40FC01002000002E40556500003203000097
:404300002F3F00003102000010520000EC160000FA12000031D000003AE30000C0F0FF0F580B0000580D0000022000000F0F00000505000070B50646581C80B245086D00AD
:40434000002408E0304600F07FF81055000A1119A41C4870A4B2AC42F4D3D80705D0D0182038D15CC47FD454C17770BD30B50A4C002100195B1E07E0541864782502545C53
:404380002C430480891C89B29942F5DB994201D1515C018030BD000000102E4010B5FF2000F080F90F49FF2048700E481021801D41800121417001700A490020C91C487084
:4043C000FFF7E2FE04000AD100F0CCF807210648FEF7CCFC044807211830FEF7C7FC204610BD0000FC010020CC112E4030B504465B1C1804450C002308E0204600F024F882
:40440000241D59005B1CA4B250529BB2AB42F4D330BD000070B500210A4D5B1E0AE0541864782602545C344346193480001D891C80B289B29942F2DB994202D1515C401950
:40444000018070BD00102E40014940180088704700102E40014A80180180704700102E4010B50B490020487000F07CF8002000F03FF9002000F02CF907210648FEF776FC69
:40448000044807211830FEF771FC002010BD0000FF010020CC112E4010B50B46062812D006DC01280CD0032801D1FFF7D9FF10BD0A28FCD00B28FAD105480078107010BDD3
:4044C000FFF76CFF10BD1146184600F02DF910BD02020020F8B5204DAC6A0127A0071F4E002816DA307806280ED1286A384328621B480069F903084381B219481030FEF726
:4045000043FC042000F0CEF8134802212830FEF72DFCE00711D0062000F0C4F80F49FF20C91E48707078002802D1686B38436863094801212830FEF719FCE0050BD5307880
:40454000042802D1052000F0ADF80348FF2101312830FEF70BFCF8BD40F02E40FF01002000002E4010B503212348FEF70DFC0120FEF718FC20483038406A204C80076178EE
:40458000800F890001431C480C38FEF7FDFB6078002808D0401E022181401820FEF73AFDC000083800E0B82081B21548FEF7ECFB1348032109021438FEF7E6FB104811490A
:4045C000B830FEF7E1FB452189010F48FEF7DCFB0D480321001FFEF7D7FB0C490C48FEF7D3FB0B480B496038FEF7CEFB084801218838FEF7C9FB10BD70F02E40020200207D
:40460000D8102E4090890000041E2E40FF0F000058122E40209000000849087806280BD148780749002803D1486B400840004863C86A01221043C86270470000FF0100206F
:4046400040F02E400148007870470000FF01002000B50300FFF73AFC080D050D0B070507090D012000BD032000BD042000BD022000BDFF2000BD0000074A9168D26889B2AC
:40468000064B92B2994204D105498A4201D1012100E000210170704780002E4033D000003FE3000010B50446FEF790FB072C01D9FF2C01D102480470FEF782FB10BD0000D5
:4046C000FF0100200149487070470000FC01002010B5064A012805D01921C9021046FEF753FB10BD1D21C902F8E7000090002E4010B50A4A141D012808D009491046FEF778
:4047000043FB08492046FEF73FFB10BD04491046891CFEF739FB0349491DF3E788002E4031D000003AE300000078074AFF2803D04C2804D9553803E01078087070474F38B5
:404740000870107070470000FE01002010B50F4A002313600E4A13600E4B18600E4801600E49012008600E490860000290600E490C4808600D4914300860FF38153850608A
:4047800000F0BCF800F0CAF9002010BD2002002008020020340200203802002024020020140200201C120020180200202C020020014610B50020002910D0094B1A689C6838
:4047C0005118A14209D25868196080188A0704D08A07920F891A091D196010BD002010BD08020020F8B50024164E671E321F3D463168136806E01422624310328A58521C0F
:404800001BD0641C9C42F6D36A1C14D02C461422544322460C3288500C214843FFF7C8FF3168002808510AD031680020103408517068401C70602846F8BD2546E4E73846A5
:40484000F8BD000018020020F3B50026F64381B000281BDB1E490968884217D80299002914D01B4F142204463F1D54432546396810354859401C09D0FEF7A8FA38682F1F31
:404880004159C359994203DBFEF79AFA3046FEBD214608310091465801590C20704308180C220299FFF743F90948761C001D0068C159B14200D100260549009A091D86505C
:4048C00008684159491C4151FEF77AFA0020FEBD14020020002803DB07490968884202D90020C043704704491422091D09685043103008587047000014020020F0B50020F8
:404900000D4A451E0346171F50600FE014260146714314680E1DA3510C461668083433511668083435511468401C635039688842ECD30020F0BD000018020020F3B5002675
:40494000F64381B0002841DB2349096888423DD8029900293AD0204F142204463F1D54432546396810354859401C2FD0FEF72EFA3868415900292BD0211D009146580C21BB
:40498000005971430F46C1190C220298FFF7CFF811480021001D0068761C00590C34C0190160416081600C48001D00680159B14200D100260849009A091D86500868415942
:4049C000491E4151FEF7FCF90020FEBD3046FEBDFEF7F6F9FAE7000014020020FEB504460D4600201E49089E0860471E009001900290002C11D0486885420ED2002A0CD066
:404A0000002E0AD0642E08D808460C3001681C2068430C18207A002801D03846FEBD0120226020721846FFF7DDFE6060401C13D06681A6810A4827610C3067610179A9427E
:404A400000D205710021684601810A462846029B00F040F82846FEBD00202072DDE700002002002038B50124009400F039F838BDFEB50027164EFF433D4600240EE01C202C
:404A8000316860430818017A002906D04068FFF721FF002801D0254603E0641C3079A042EDDA681C12D01C2130684D434419FEF78DF969466068FFF741FF0546FEF780F940
:404AC000002DD9D1216868468847D5E7FEBD00002C02002038B50024009400F001F838BD1FB500220C49541E0A60002811DB496888420ED808491C220C3109685043081805
:404B0000406801A9FFF7A0FE401C02D0002004B010BD2046FBE7000020020020F0B50021114A4D1E174611710C3F0B46BD6016E008461C2460431668041D355114680646FE
:404B4000235014680836A3551468361DA353044616680A34335318301468491C255078688142E5D30020F0BD2C02002038B500210091002811DB0F49097888420DDA0D4D14
:404B800004010C3529680859002807D0201D0818694600F05FF9002801D0002038BDFEF715F928680F34015D491E0155FEF708F9009838BD3C020020F7B582B00025ED4357
:404BC000029800240E460560002A49D0002E47D02D48D21C02402D48174601780C30006805E022018258002A0FD0641CE4B28C42F7D3691C3ED02C01211D4018019131462A
:404C000000F016F900282BD101E02546F1E71F480C30016820460C300F521C480C30016820460E300E5419480C30016820460F300E543846704300F0ADF814490C31096831
:404C4000002808510CD00024009011E00F480C30016801980818009900F017F9002802D0012005B0F0BD0098C019641CE4B20090B442EBD30298054905600C310879401C35
:404C800008710020EDE70000FCFF00003C020020F8B50D4600216A468C461180002839DB23490978884235DA214B04010C3319680A59002A2ED020460C300B5A801C0E5C2F
:404CC000184670438018954224D3854222D2002006E007465F43BF18AF4206D0401CC0B2B042F6D36046002814D0114E271DC8190C366A46294600F0F2F800280AD1684644
:404D00000088012808D030682946C01900F0BDF8002803D00120F8BD0020F8BDFEF756F830680F34015D491C0155FEF749F8F3E73C02002003460020002B06D0034A5168AA
:404D4000906852884018511A198070473C02002070B5002400F0DCF80D4E002132460C3271600EE0200113680546195013680C355953AD1C13680F3059551368641C1954A1
:404D8000E4B230788442EDD31171002070BD00003C020020014610B5002000290CD0C91C064B8A08596892005C888A18A24202D898685A60401810BD002010BD3C02002048
:404DC000F8B5002827DB19490978884223DA174C05010C342168485900281CD028460C30085A009028460E300E5C401C0E5420682F1DC01900F064F800280CD12068002431
:404E000045590EE0094829460C300068C01900F03CF8002801D00120F8BD00982D18641CE4B2B442EED30020F8BD00003C02002030B50D4604000BD0A800FFF7ABFF6060BA
:404E4000002805D000202570C0436080002030BD012030BD70B50D46040005D0002D03D00220205E002801DA012070BDFDF7AEFF0221615E60688900405828606088401E06
:404E80006080FDF79DFF002070BD70B50D46040007D0002D05D002212078615E401E814201DB012070BDFDF791FF6088401C00B26080616880000D50FDF782FF002070BD59
:404EC00010B5040009D0227800216068FEF738FE0020C0436080002010BD012010BDF0B500231D46002802D00224045F0AE00120F0BD46689F00F6598E4201D1012503E0D7
:404F00005B1CDBB29C42F4DA15700020F0BD0000054B11221A70054A1180064A0449116005490860704700003C0200203E0200204C1200204802002044020020014800783A
:404F400070470000500200207CB505460024FEF7FFFDA8796946087000A8062229460130FEF7E5FD0021684604F0D2F80C2804D0072804D01F2804D004E0022402E0042421
:404F800000E0272420467CBD10B500F0BDF8FFF759FBFFF75DFB10BD10B503240BF01AFE002810D10BF0BEFD00280CD104F006FE002808D100F06AFA002804D104F002FB5A
:404FC000002800D10024024900200870204610BD5002002070B50025044600280ED0A07901280BD8FEF7B4FDA0790028204602D002F0DEFD03E002F093FD00E00125284688
:4050000070BD38B504460120002C20D0617801291DD800290BD0FF25E535FEF799FD2846FFF712FAC0B22070072803D00EE0FF25CD35F2E70020694608706846FFF71CFBA7
:4050400069460878012801D108202070002038BD70B504460120002C1FD06178012902D92278092A19D8002906D0FF25E53520780726092803D003E0FF25CD35F7E726706F
:40508000FEF766FD2078082808D00020FFF730FB21782846FFF7DEF9002070BD0120FFF727FB2670F4E7000070B50D46040001D0002000E00548002802D0012101F0AAFF9C
:4050C0002946204602F084FA70BD0000D013002038B5054600200446009022466946284600F06CFE0098002801D00BF055FDA878214602F0B1F8A878214602F0A0F8641C99
:40510000E4B2052CE9D338BD38B5FFF79BFA042819D0052817D006281AD0032842D007280AD100206946087002460120FFF7B4F9FFF788FA0128FBD138BDFDF771FCFFF7EB
:4051400081FA0128F8D0FFF77DFA0128F5D138BD02F0EAF805E0FDF763FCFFF773FA012803D0FFF76FFA0128F5D1A12424012046FFF76AF901220E4983079B0F0A70022BBB
:40518000E5D149880029E2D0104301462046FFF761F92046FFF758F9410849002046FFF759F938BD02F0C4F80120FFF77BFA38BD56020020F8B50646002402F00BFE054651
:4051C000304602F01FFE00210346012632468A40174610462F401840002F03D0002801D1224394B2491CC9B20529EFD32046F8BD1CB50020694648706846FFF702FF01AAA3
:4052000069460A20FFF748F96946042008561CBD10B50C4601F076F9002809D00179002906D0C1788078224602F080FA002010BD022010BD01480078704700009C1300203B
:405240004030C07E002800D00120704700B500F001F800BD88214843064940186030417F491CC9B24177052901D300214177C8B270470000B013002013B501F043F90400AA
:405280000BD001F09AFC002807D0214601AA0A310620FFF701F900201CBD02201CBD000010B50C4601F02EF900280AD001F085FC002806D0224604490A20FFF7EDF80020BB
:4052C00010BD022010BD000085130020F3B581B0074601460026029802F074FD0446002F01D0002500E0154D002D21D0284601F03FF9032C04D13946029802F08DFD06465F
:405300003846029901F09BFF032C06D0002C10D00121384601F01AFA03E03146384602F02FFF284601F05CFE0221284601F072FEFEBD3846029901F082FFFEBDD01300206C
:4053400070B50446002503F01DFB002801D00C2070BD2078611C02F0E3FAFF2802D01F25284670BD02F030FBFF2804D02178621C01F0DAFEF4E70725F2E710B503F002FBF3
:40538000002801D00C2010BD02F0A2FA002010BD70B50D46044610210BF03EFB1021601806460BF039FB334610221946204603F015FB102130460BF02FFB022028702046D6
:4053C00004F058F870BD70B504464078217802028006850FE0781143A67809050002090D0643084601F08EF8002812D0022D10D0032D0ED0002E08D00179092909D0002985
:4054000007D0214600F0A1F870BD0089002103F066FF20460BF0C0FB70BD0020704770B50446002503F0AEFA002801D00C2070BD2078611C02F074FAFF2802D002F0B6F9C6
:4054400000E01F25284670BD10B504F0BBF800F0F6F8002010BD10B5044600786178E2780843A17811430843217908436179084305D003F079FA002803D00C2010BD12200E
:4054800010BD204602F094FB002010BD10B5044803F0E2FA02F094F900F004F8002010BD6C130020F8B5114D00266E706E736E716E76AE76EE766E75AE70EE70AE712F4646
:4054C000EE730120B03778723F2078719B20B87100F00AFA0024204601F036FB641C2406240EF8D03E72FE71AE73F8BDB013002070B505460E46084602F06CFC04463046E5
:4055000002F080FC0121A9400A46224001400A4301D0012070BD002070BD10B50446084602F070FC0121A140014201D0012010BD002010BD10B5FFF785F8032804D101F070
:40554000F7FE0120FFF7AEF810BD70B5044600790D4609281CD000281AD020464030817E491C8176204601F03BFDA078FFF76EFE064602462946204600F00CF8002806D1AC
:40558000A0783146FFF790FD28460BF005FB70BD0846FAE7F7B5054648780C468006870FC8788978000282B0014368468180284601F00EFB060007D021462846049A00F0DF
:4055C00091FB304605B0F0BD384600F039FC0746034601AA2946204600F0CAFA68468088231DC0B20090A878FF22049901F0AAFF684680883B46C2B2A878049902F054FBC1
:40560000DFE770B5002500242846FFF7D3FD060010D03046E040C007C00F07D02146284601F001FE21462846FFF750FE641CE4B2052CEED36D1C2D062D0EE4D070BD10B596
:4056400002F0BEF8FFF72EFF0BF00EFB002010BDF8B5002400F081F80123012800D10124104F00203E4620360425082203E0002801D0002100E031460979002907D0012945
:405680000BD002290BD0114681402143CCB2401C0006000EEBD07C70F8BD1C43F7E72C43F5E70000B013002010B5FFF7D1FF10BD10B50B4681791943817103D08078114600
:4056C00002F0B6FA10BD10B582798A43827102D1807802F0C5FA10BD70B5FF25D53502242846FEF7B1FE0C4A9178002901D0022906D1137852789A18282A01D9032402E050
:40570000032900D101244105490DE00201432846FEF7A0FE70BD00005202002010B500F022F8002807D0012805D0032801D0042801D0002010BD012010BD014610B5002017
:40574000C90701D000F009F810BD014610B50020C90701D000F001F810BD10B52020FEF773FE000A10BD10B51820FEF76DFE410501D5042010BD4007800F10BD38B50446C1
:4057800040060CD5684601F0D9FD0220FFF78CFF072002F031F96846007801F03FF9200613D5FFF7E0FF01280FD1684601F0C6FD6846007800F09AFA072002F01DF90120D0
:4057C00001F076FC0220FFF76FFF38BD10B5034A0178117002F01FF9002010BD5202002010B50446FFF7B9FF002801D00C2010BDA27B01211848002A827801D00A4301E0E3
:405800005208520082706279012A0FD0C17849084900C170207901280CD06188208802F01DFF2080207904280BD00DE0C2780A43C270EFE7E01D02F0A3F90848808C208061
:4058400002E0E01D02F09CF9054920798870204602F0F0F8002010BDB01300205C1300205202002038B50478FFF777FF844201D10C2038BD002C18D0072069460870FFF7EA
:405880004DFF012807D10121684600F08DF8012801D0092038BD6846007802F0ADF8FFF71BFF02F0F7F8012010E0FFF737FF012806D1684601F042FD6846007800F04AFA1B
:4058C000072002F099F802F0D9F80220FFF7ECFE002038BD10B5034A0178517002F080F9002010BD5202002038B568460BF0EAF8002801D01F2038BD01210098C902018061
:405900004180002505714571857107214173857302F090F8009C202200212046FEF710F925702A460021601CFEF70AF9204602F072F8204602F054F900980BF02DF90422CE
:4059400000210248FEF7FCF8002038BD520200200346084800B5834209D8184600F0D2FD002804D00089984201D1012000BD002000BD0000FF0E0000074A9179491C8906F1
:40598000890E917138220A4092014907090E11430843024908407047B0130020FF0E0000C006C00E70470000F8B507460E4600240D4803E0002C01D0002500E005462979F3
:4059C000002905D0641C2406240EF3D00020F8BD204601F0B9F82E712046FFF7CDFF28813C700120F8BD0000D013002010B503F029F80222002100F003F801F089FE10BDEA
:405A000010B5094B40074907000F090F185A595A40185043C0086421FDF79CFA002800D1012080B210BD0000EA330100F7B53D20405C88B016460C46002829D0307869466E
:405A4000087200252046FFF7FBFB012800D00125204603A938300191009023460327A17E34332A46206A03F011F802A8089900900B46019120463A4603A9243002F090FF46
:405A800002466846007A3070204601F049F810460BB0F0BDFFB587B00C4605461078694608723D20005D1746002826D000262046FFF7C6FB012800D00126204603A9383035
:405AC000019100902346A17E34333246206A02F0DDFF02A80090291D019120462B1D03A924300A9A02F05CFF02006846007A388002D1204601F014F810460BB0F0BDF7B592
:405B00003C20405C88B015460C4600280CD0287869460872002806D000262046FFF790FB012803D003E01F200BB0F0BD0126204603A938300191009023460327E17E34330E
:405B40003246E06902F0A2FF02A8089900900B46019120463A4603A9243002F053FF02466846007A2870204600F0E4FF1046DBE7FFB505463C20405C87B016460C4600288C
:405B800010D0084601F024F801280BD0308869460883002809D000272046FFF751FB012805D005E000200BB0F0BD0220FBE70127204602A93830019100902346E17E343383
:405BC0003A46E06902F062FF06A80090291D019120462B1D02A924300A9A02F013FF02466846008B30806846008BA870000AE870204600F09FFF1046D5E770B50D46044672
:405C0000FFF71EFB01280AD0E87AA97A00020143A07801F04DFC012808D0002070BD00222421204602F064FC242070BD28214C200155204600F09AFB282070BD002801D0F3
:405C4000002000E003484030C07F012800D0002070470000D01300200146002049070ED50021084B03E0002901D0002200E01A461279022A04D0491C0906090EF3D070477A
:405C800001207047D01300200146002049070ED50021084B03E0002901D0002200E01A461279022A04D0491C0906090EF3D0704701207047D013002010B5044680346068C6
:405CC000002803D00AF07CFF0020606010BD4030417070474030817070474030017070470171704792001018C166704770B53C2501F0F8F8040004D020460021433001F014
:405D000091FB2946204600F0C0FB002C02D0A07801F07AF870BD000010B5002801D0002000E00348002802D0008903F01FFB10BDD013002010B5002801D0002000E004483E
:405D4000002804D00179072901D100F041F810BDD013002010B501F0C5F8002802D0807801F052F810BD00207047000070B50546008A00281ED010491122897A1140C906AF
:405D800018D5294640314A8A098A521C4A4392B2D10800D10121540801E0621A94B2A042FBD9FFF7CBF8012804D1298AA878224601F05CFC70BD00005C13002000230B606A
:405DC000052A04D292001018C26E0A60C366704738B5044600200090A079002814D14020015D052901D00E290ED168460AF07AFE002809D12046009902F062FB034810219E
:405E0000C28A2046FFF754FC38BD00005C13002010B50B4604460146184602F031F8002802D020460AF0C2FE10BD13B5044601AA11460620FEF730FB6846818861811CBD13
:405E4000002800D10220704770470000F8B504462346401D543300909A1EA078911E01F07CFA25464035A88A298A8000FDF772F8401E81B2688A884203D96982A07801F01F
:405E800062FF20460021433001F0CCFA8020FEF7DBFAE88102F0D6FDE989891C8AB26179FFF7AEFD01F034FC02F0CCFD2A8A6179FFF7A6FD074601F01DFC688A00280BD01B
:405EC000FF26F1363046FEF7BFFA0321090201433046FEF7BFFA02E0002001F022FFFF206130FEF7B1FA6E8A002E0BD070431049FDF790F80004000C01D0401C80B20D49E9
:405F0000488002E00B4800214180288A704381B2A07801F073FE2837B9B2204602F0A2FBE98AA07801F0C2FDA07801F0ABF9F8BD71020000560200207FB50446803461682E
:405F400005460E46183108226846FDF7F0FD31462031082202A8FDF7EAFD102168460AF05BFD6068102108300AF056FD60682B46083024331022694602F030FD7FBD10B591
:405F800004460821FFF79FFB10212046FFF79BFB207905281FD006281DD008281AD12189002003F05BF9072020712046FFF748F9014620464030012913D00E21017000217F
:405FC0000176204600F02CFF2046FFF775FE2046FFF7CCFE10BD20890122002103F022F9E1E70521EAE70000FFB581B01F4604460821FFF768FB10212046FFF764FB207992
:40600000082803D0092804D0042203E00422012501E009220025204600F0C6FD264600204036307022712046FFF746FE0398002D02D0012808D00BE001280AD1208900228F
:40604000029903F0EFF804E02189029803F006F9012700203076012F04D0204600F0E0FE05B0F0BD02983073204602F06DFA054605480121C28A2046FFF71AFB002DEFD1A9
:4060800009202071ECE700005C13002070B50C460546FFF7D5F8012809D108212846FFF712FB0023012221462846FFF79DFF70BD10B5044600F078FD2046FFF7FDFD0021DD
:4060C0004034217010BD70B505461A24FFF7B8F8012809D108212846FFF7F5FA0023012221462846FFF780FF70BD0000F8B50446002000900E4668460AF0F4FC002801D0B2
:406100000D20F8BD8420005908212030009D00F0F4F920460421383000F0EFF9002E02D1204600F07FFD2946204602F059F90E480821C28A2046FFF7BBFA204600F0D7FECF
:4061400025464035002808D0204600F023F8002801D0092028700020F8BD08202870204600F03EFFF7E700005C130020014610B540310A460978082906D0092907D00A29EE
:4061800001D100F091F810BD0B20107010BD00F001F810BD70B50446007925464035052805D0062803D008280FD00C2070BD03220621204602F09CF90D480821C28A2046FD
:4061C000FFF776FA1120287010E006202873204602F0BAF90646AA8A0A20424301212046FFF766FA002E01D109202071002070BD5C13002038B504460020009068460AF082
:4062000071FC002801D00D2038BD2046009D00F08BF908202071204600F004FD2946204602F010F900213D2001550F2040210855204600F0D5FE002038BD00B5024600F093
:40624000B3FC10214032117000BD10B50446FEF7F7FF012809D04020005D112805D100231A4606212046FFF7BFFE10BD10B5FFF786FE10BD38B504460021684600910AF099
:4062800031FC00280CD12046009902F052F905480821C28A2046FFF70BFA0D204034207038BD00005C13002038B504460021684600910AF017FC002801D00D2038BD204673
:4062C000009902F02BF905480821C28A2046FFF7EFF90C2040342070002038BD5C13002000787047F8B50025002801D0002400E01A4C002C28D0204600F05FFC002823D0C1
:40630000207903281CD005281CD026464036B18AA07801F081FCB078012815D10021204601F0CBFD274680373868002802D00AF047FC3D600020B0702079072805D007E01E
:40634000042000E006202071F8BD2046FFF70EFD0221204600F05EFEF8BD0000D013002010B54C22115400F046F810BD10B50446FF21FFF7A8F909202071A07801F07CFC25
:4063800010BD000038B5FF216A461180002801D0002400E0064C002C08D011460620FEF77BF8684601882046FFF73FFD38BD0000D013002010B504468079002809D0222177
:4063C0004C200155FF212046FFF77DF9204600F012F810BD10B5037902464032002B03D01173092B02D003E0002100E02221117300F001F810BDFEB504460089002701909A
:406400002781207926464036002817D0012815D002280AD112E002AA6946204601F01EFD002807D100980AF0C1FB204601F03EFD0028F0D02046FEF74BFEB776254680359F
:406440002868002802D00AF0BBFB2F606868002802D00AF0B5FB6F60317B002902D0019800F044F8A078002100F020FF2046FFF7BDFAA07801F006F8A07800F0C5FC0B204E
:40648000FFF712F900F004FCFEBD70B50E46054602F0D4FA044606702846FEF7D1FE014601204140204661700C3000F0A4FF002D10D02889608028464030C1782171002E56
:4064C00010D169796171018AE180418A2181808A608107E01820FDF7B7FFC005C00F207100206080204602F062FE70BD0A4610B50146002002F052FF10BD10B50AF068F845
:4065000010BD000000B50146FFF74AFA002801D0002000E00348002802D002898A4200D0002000BDD013002038B5044680346068002806D168460AF0E5FA002801D1009848
:406540006060606838BD000010B5014600F040FB0128887802D0FEF77DFE10BD88214843024940186030007F10BD0000B013002070B5054604464035A87F012811D1A1781F
:406580008820084A484380186030067F3046FEF7AFFF002805D10220A877A078314601F025F870BDB013002010B50E4CE079002816D0FFF726F80C48827FC17F808B00F07A
:4065C0006FFB01280CD10020E07100F0C0FE0446AC20FDF739FF010B02D0204600F00EFA10BD000060140020B013002070477047490510B5490F0B00FDF768FC06070408F5
:406600000C0C0F073E21FFF7ABFE10BD0821FFF7E1FE10BDFFF7EFFE10BDFFF7CBFE10BDF8B507460025002D01D0002600E0204E00F068FE3046403044890021418100F0ED
:406640006BFE304600F0B9FA01282BD1A00702D52846FFF747FEE00602D52846FFF792FEA00601D5FEF7CDFF600601D500F0CCFA200602D5284600F01DF8600702D5284650
:4066800000F0FEF9380402D52846FFF753FB780402D52846FFF740FBE00703D021463046FFF7A6FF6D1C2D062D0EBCD0F8BD0000D0130020F8B5002801D0002400E0204CB9
:4066C000002C39D025464035A878012834D1E98AA07801F0EBF92046FEF7B2FD01282BD002F0B0F92A8A6179FFF78AF9064601F001F82836B1B2204601F0B4FFE98AA0787B
:4067000001F0D4F9FF206130FDF79EFE6E8A0D4F0146002E11D0304648430B49FCF77AFC0004000C01D0401C80B27880288A704381B2A07801F062FAF8BD0020F5E70000DE
:40674000D0130020560200207102000070B50D46124A010001D0002401E014462034002C1BD0204600F034FA01280AD18820484380186030007FFEF7BBFE002801D101F0C0
:406780006DFE20464030817E491B8176204600F027FC2089294602F0A2FD70BDB013002070B503460088FFF7ADFE040013D000F004FA00280FD02079092819D0254699786A
:4067C00040352973204601F0BFFE0646A878012803D0AA8A02E0022070BDEA880A20424301212046FEF764FF002E01D109202071002070BD0EB5002217216B4602921981A3
:4068000000905A810120029B00990AF04BFA0EBDF8B5184E0024F079002820D10025AC20FDF712FE000B21E0204600F00BFEFDF70BFE07462A46214600F032FA01280FD02E
:406840000D48012187838577C477F171002D01D0002000E02030002801D000F0C1FBF8BDAC20FDF7F1FD000B641CE4B20028DBD1F8BD000060140020B013002010B500883A
:40688000FFF740FE002809D0014640310C460978082905D00B2903D00C2010BD022010BDFFF778FC002801D009202070002010BD70B503460088FFF725FE040008D02546C4
:4068C00040352878082805D00B2803D00C2070BD022070BD8420005910220830991CFDF726F92046FFF728FB2878082804D02046FFF7DAFC002801D00A202870204600F03B
:406900006FFB002070BD000010B50C46002121700088FFF7F7FD03000BD000F04EF9002807D009481121807A0840C00603D4112010BD022010BD022020701A8A18890021EA
:4069400002F048FD002010BD5C130020F8B50F46002100910088FFF7D5FD040012D000F02CF900280ED0E079410641D4617E02264A07002A08DB8907402500291ADA2843C8
:40698000E07135E00220F8BD02F058F80021017021894180A1898180217E4170E189C1803E7005460178134802F07AFA284602F0B5FC1DE0204600F011F9012806D06846E7
:4069C0000AF090F8002803D00720F8BD2A20F8BDE07900992843E071204601F0DFFD607E0421304360760448C28A2046FEF760FE0020F8BD1D0400005C1300203EB5002227
:406A00000F236C460292238100910190628169460EC900200AF046F93EBD000070B5054600F060FA040024D003202071254600264035EE76E6702046FFF708FA01F01EF8D0
:406A40000920FEF731FEA07800F00AFD0121204600F0E0FA2E706E70AE7000212046FFF714FD0649887B401C8873012001F038F970BD284601F000F970BD0000B0130020BF
:406A800010B5002801D0002400E00A4C002C0FD020464030417802290AD1002141702046FEF7CEFB002803D10221204600F0B2FA10BD0000D013002070B503460D460088EE
:406AC000FFF720FD04000BD000F077F8002807D012481121807A0840C00603D4112070BD022070BD20464030418A008A491C41430804C10C5888884201D2122070BD2082C3
:406B00002079072802D12046FFF730F9022028702089002102F086FC002070BD5C130020016A491C016204D1817E491C4906490E81767047C169491CC16104D1C17E491C77
:406B40004906490EC176704770B500250646002801D0002400E0114C002C1CD0882200212046FCF7EDFFA67000202646207140363070204600F018F8204601F093F9084887
:406B800020820848B577807A1121084000D001202075012070BD002070BD0000D0130020B80B00005C130020002101628176C161C17620300177417770470079002805D04C
:406BC000012803D0022801D001207047002070474030807F002800D00120704740300078002807D0012805D0052803D00E2801D0012070470020704710B5807801F002F96C
:406C0000002800D0012010BD10B500F0A0FB0446AC20FDF719FC010B02D02046FFF7EEFE10BD000070B5054604464035A87F002823D1FF206075A0788821144A4843801864
:406C40006030417F8823491CC9B24177A078584380186030052901D300214177A0788821484380186030467F0677A1783046FEF73FFC002802D00120A87770BD0220A877AE
:406C8000A078314600F0B2FC70BD0000B01300200020401C0006000EFBD0002070470000F0B515468207920F85B0C004C00E02926A469080002D01D0002400E0514C002C55
:406CC00029D0084600F0BEFB03906846808800280BD00298012845D0022843D003280CD03D20005D012872D086E00398FDF7ACFB01462046FFF799F87EE00020029002A88D
:406D000009F0D0FE002807D03D20005D012876D12046FFF705FF72E06846029E8388324600210398FDF706FB0398FDF78DFB01462046FFF77AF8284600F0B0FA01AA2146E9
:406D40003046FEF773FE002806D0304609F01AFF3D204C21085528E0F5773146204601F0EFF94CE0002000902789684609F08AFE002802D0002005B0F0BD6846009E8388D2
:406D8000321D00210398FDF7D5FA0398FDF75CFB01462046FFF749F8284600F07FFA25464035287E00280CD103E02046FFF7DEFA25E001AA21463046029BFEF76BFE002812
:406DC00006D0304609F0D4FE3D202873EDE710E00298FFF739F8390A000101433770717068468088B070000AF0703046FFF702FD05E02046FFF794FE284600F04FFA0120A9
:406E0000B9E70000D013002010B5044A917B002901D0491E9173FFF797FE10BDB0130020F8B5074606464037B87F00283DD0B0788821009048431F4945186035287F009941
:406E4000FEF76BFB012831D0287F401CC4B2052C00D300240020B877FF276F772F77A87702460146009800F041FD717DFF2903D0304600F0D8FF777501F0F0FA00252F46F0
:406E80002246694630460097FEF798FF0099002902D03046FEF759FB641CE4B2052C00D300246D1CEDB2052DEAD3F8BD0320B877F8BD0000B013002010B502460021084B5A
:406EC00003E0002901D0002000E018460479944204D0491C0906090EF3D0002010BD0000D013002000B50120FFF7E6FF00BD10B5044601F0A3FD218901808034616841609B
:406F000061682831816002F0C3F910BDF7B50646087982B00C46092807D0A078F0770846FFF756FE012806D010E0304609F03EFE022005B0F0BDA1788820284A4843801843
:406F40006030007FFEF7D4FA012810D0A078FEF775FE01280BD037780121304601F02BFA25462035062F36D00B2F0FD107E06846027C21463046FEF74BFF0D20D9E72046BE
:406F8000FEF75EF9012801D1002028772046FFF7DBFA054604AA21463046FEF7B0FD01205F2108556946087C0090A07833463A46294600F0C7FA69460A7CA078032329464E
:406FC00000F072FEA0782946FEF76EF8304609F0EDFD0020ADE70120D7E70000B013002010B502464032937F0021002B03D1927E002A00D00121064AD279002A00D00021ED
:407000000279092A00D10121807800F077FE10BD6014002070B50C460646FEF711F9002814D1012C0ED935464035A87800280DD1687802280AD03079092807D03046FFF7F7
:40704000DBFD0446204600F086FD70BD0124F9E770B50D4601280BD0082808D1A8241146B020FDF7F7F929462046FDF7F3F970BD2020FAE710B501460820FDF7EBF910BDAB
:4070800010B50446FF20F130012C01D1FF20D530002200F07EFE1020FDF7D6F90349A043088001461020FDF7D5F910BD5A02002010B504461020FDF7C7F90449A0430880F9
:4070C00001461020FDF7C6F910BD00005A02002010B50446012802D0082C07D102E0FF20D53001E0FF20F13000F048FE1020FDF7ABF904492043088001461020FDF7AAF99C
:4071000010BD00005A02002010B504461020FDF79BF904492043088001461020FDF79AF910BD00005A020020F8B507460120B84085B214460E46012229467C2000F029FE83
:4071400032462946782000F024FE6078217800020143E078A5780002054360792679000206430C2047430D2080013C182046FDF771F9241D29462046FDF76CF9201D3146A6
:40718000FDF768F9F8BD8B00034310B5D10191201943C000FDF75EF910BD000070B505460C46407829780002014341200001FDF751F9E878A978000201430A48FDF74AF927
:4071C00060782178000201438320C000FDF742F9E078A1780002014302480830FDF73AF970BD00001404000070B50D46044681B201208002FDF72EF9210C0448FDF72AF95E
:4072000081202946C000FDF725F970BD0404000070B5054600242846FDF716F9641CA4B2102CF8D370BD10B50C460146B020FDF711F9FF2021462D30FDF70CF910BD10B58E
