:400000000040002011000000990700009907000080B500AF00F0C4FB80B584B000AF021CFB1D1A70204A3B1C0B3312781A701F4A3B1C0A3312781A700423013BFB6018E0CA
:400040001B4B1868391C0B31FA68131C5B009B18C3185B780B70164B1868391C0A31FA68131C5B009B18C3189B780B70FB68013BFB60FB68002B0ADB0D4B1968FA68131CF1
:400080005B009B185B5CFA1D12789A42D8D9094B3A1C0B3212781A60074B3A1C0A3212781A60BD4604B080BDCCF1FF0FCDF1FF0FCC0000201CFF0B4020FF0B4080B500AF4F
:4000C0002D4B12221A600C20FFF7A6FF2B4B0C221A60052002F0B8F9294B2A4A1278D2B21A60052002F0E2FC02F046FAFA235B00181C02F0B7FC012002F04EFA224B8022DB
:40010000D2051A60214B224A1A60224B214A126808218A431A60FA23DB00181C02F0E6F91D4B181C02F0C2FC1C4BB02212011A601B4B1C4A1A601C4BFE2212021A60184B8D
:400140001A4A1A601A4BFE2212021A60144B194A1A60194B802212061A60184B42221A60174B40221A60174B41221A60024B00221A60BD4680BDC046300010402CFF0B40D7
:4001800028FF0B40D9F1FF0F0C020B407C002E406A2D00006CF02E40DC050000080301400000014042FF00800003014040FF00800403014041FF008008010B402C01014055
:4001C000140101401001014080B582B000AF72B6504B00221A60FB1D00221A7023E0FB1D1A78131C5B009B185B004B4A9B183B603B681A78597809020A43997809040A432D
:40020000DB781B0613431A1C3B6819795B791B020B439BB2101C191C00F046FBFB1D1A78FB1D01321A70FB1D1B78012BD7D93B4A3B4B101C191C00F047FB3A4B802252004E
:400240001A80394B01221A70384B8022D2021A60374BEE2212061A60364BC02292041A60354B364A1A60364BD82212041A60354BC1221A60344B8822D2031A60334B8022AF
:4002800012021A60324B01221A60324BC1221A60314B324A1A60324B01221A60314B01221A60314B992212041A60304B304A1A60304B802212061A602F4B802292051A6005
:4002C0002E4B992212041A602D4B194A1A602D4B2C4A1278D2B202210A43D2B21A702A4B294A1278D2B23C218A43D2B214210A43D2B21A70234B234A1278D2B216210A43CA
:40030000D2B21A70FFF7DAFE00F01EFBBD4602B080BDC0466CF02E40041F0100101F0100281F010000600F4002600F4014000B4000000240000202400003024003000033BA
:400340000800044000020440080204400C02044018020440000304400803044006002400000404401804044000500F4020500F400400990024500F4028500F4030500F4031
:4003800038500F4000700F4001700F4010B5064C2378002B07D1054B002B02D0044800E000BF0123237010BDC003002000000000B01E010008B5084B002B03D00748084916
:4003C00000E000BF07480368002B03D0064B002B00D0984708BDC04600000000B01E0100C4030020C80000200000000080B500AF00F014F802F0B8FE064B1B78012B08D1A1
:4004000000F066F9044B1B78012B02D100F030F8F0E7EFE7DD030020DC03002080B500AF62B6124B181C00F083FC00F0ADFB00F009FBFF2000F02AFCFF2000F037FCFF20AA
:4004400000F082FB062000F0E5FA062000F0CAFA062000F03BFC01F053F801F0EFFB002001F052FD00F074F9BD4680BDAD04000080B582B000AF01F019FD01F0A1F8C04681
:4004800001F0CAF8031C002BFAD1002001F02EFD031C1A1CBB1D1A80BB1D1B88DBB2181C00F08EF8BD4602B080BDC04680B584B000AF786039607B68282B0CD004D8012B24
:4004C00009D0262B0BD06AE0422B15D04C2B2BD0412B0DD063E0002000F072FC5FE0314B1B78042B03D1002000F06AFC57E056E02D4B01221A7052E02B4B00221A702B4BBC
:4005000000221A702A4B01221A702A4B00221A70284B00225A70274B00229A70254B0022DA7000F075F83AE03B68FB60FB689A89214B5B899A4215D1FB685B681A781D4BC6
:400540001A70FB685B685A781A4B5A70FB685B689A78184B9A70FB685B68DA78154BDA7000F056F8FB689A89134B9B889A4207D1FB685B681A780D4B1A700D4B01221A706B
:400580000E4B1A785B781B021A4300231204120C1B0C1B041343181C0CF0B4FCC046BD4604B080BD1C250020DD030020DC030020DE03002010250020C8240100242500202A
:4005C00080B586B000AF021CFB1D1A703B1C0C330E221A813B1C0C33FA1D1A603B1C0C3301229A80094B3A1C0C3219785B781B02194300230904090C1B0C1B040B43181CF4
:40060000111C0CF035FCBD4606B080BD2425002080B582B000AFFB1D2A4AD2781A70294B1B78FA1D12785343181CFF2102F0F0FC031C1A1CBB1D1A70224B5B78FA1D127883
:400640005343181CFF2102F0E3FC031C1A1C7B1D1A701C4B9B78FA1D12785343181CFF2102F0D6FC031C1A1C3B1D1A70BB1D1B78DB43DBB2181C00F009FB7B1D1B78DB43C1
:40068000DBB2181C00F012FB3B1D1B78DB43DBB2181C00F059FA0C4B13221A810A4B094A1A60094B04229A80074B0422DA80064A064B101C00211A1C00230DF05FF8BD4622
:4006C00002B080BD10250020042500202425002080B584B000AF134B1B78002B1FD0114B00221A70104B1A783B1C0C331A703B1C0C3300225A703B1C0F221A813B1C3A1C7A
:400700000C321A603B1C02229A803A1C074B101C00211A1C00230DF031F802F025FDBD4604B080BDDE030020DC0300202425002080B500AF054B1B681A1C0A32034B1A6096
:40074000042002F093F8BD4680BDC046E003002080B500AF0F4B0820191C02F0BDF801F065FF0020012101F09FFF0020012101F0CBFF4023FF330020191C02F02FF8012006
:4007800001F0FAFF082002F021F901F025FFBD4680BDC0463107000080B500AFFEE7C04680B586B000AF224B7B61224B3B61204B7B6135E03B691B68FB603B695B68BB60ED
:4007C0003B699B683B6000237B600CE0FB681A68BB681A60BB680433BB60FB680433FB607B6804337B607A683B689A42EED13B69DB683B6000237B6008E0BB6800221A60A5
:40080000BB680433BB607B6804337B607A683B689A42F2D13B6910333B617B69013B7B617B69002BC6D102F055FCFFF7DFFDFEE701000000A425010080B582B000AF154BCA
:40084000144A126801218A431A6000237B600FE07B68032B04D8104B7A689200D35800E00E4B0F4A796889008B507B6801337B607B682F2BECD9FFF7A7FC0A4B00221A600E
:40088000044B044A126801210A431A60BD4602B080BDC04600001040000000009907000000000020C000002080B582B000AF786039607A683B68101C00211A1C02F048FC8B
:4008C000BD4602B080BDC04680B586B000AF7860396000233B6100237B612EE07B699B007A68D3181B68BB603B1C0F33BA681A70BB68FF229343BB6017E03B695B003A68AD
:40090000D3181B781A1CBB68D3183A69520039688A1852781A703B6901333B613B1C0F331A783B1C0F33013A1A703B1C0F331B78002BE2D17B6901337B617B69052BCDD9B4
:40094000BD4606B080BDC04680B500AF064B03221A60064B03221A60054B00221A60012000F008F8BD4680BD3000304030003140000E3F4080B584B000AF021CFB1D1A70D4
:40098000154B1B68FB60FB1D1B78002B05D0FB68802212061343FB6003E0FB685B005B08FB600D4BFA681A600C4B1B68FB60FB1D1B78002B05D0FB68982292051343FB60A8
:4009C00003E0FA68064B1340FB60044BFA681A60BD4604B080BDC04680033A4008010B40FFFFFFD980B582B000AF021CFB1D1A70064B064A1168064A1140FA1D127892049F
:400A00000A431A60BD4602B080BDC04608030440FFFFE3FF80B582B000AF021CFB1D1A70064B064A1168064A1140FA1D127892040A431A60BD4602B080BDC04608020440F3
:400A4000FFFFE3FF80B500AF064B1B78002B04D100F00AF8034B01221A7000F03DF8BD4680BDC046E403002090B583B000AFFF2000F040F8B82000F057F8012000F064F87D
:400A8000012000F071F8FC1D01F0E7FC031C23700F4B0F4A1278D2B201210A43D2B21A70FB1D1B78181C01F0DCFC0A4B094A1278D2B202218A43D2B21A70064B054A127859
:400AC000D2B204218A43D2B21A70BD4603B090BD92000F4072000F4080B500AF044B044A1278D2B201210A43D2B21A70BD4680BD72000F4080B582B000AF021CFB1D1A70EA
:400B0000FB1D1B78002B07D0054BFA1D12781A70044BFA1D12781A70BD4602B080BDC04642000F4002000F4080B582B000AF021CFB1D1A70034BFA1D12781A70BD4602B035
:400B400080BDC04612000F4080B582B000AF021CFB1D1A70034BFA1D12781A70BD4602B080BDC04622000F4080B582B000AF021CFB1D1A70034BFA1D12781A70BD4602B015
:400B800080BDC04632000F4080B500AF064B1B78002B04D100F00AF8034B01221A7000F03DF8BD4680BDC046E503002090B583B000AFFF2000F040F8B82000F057F80120A3
:400BC00000F064F8012000F071F8FC1D01F045FC031C23700F4B0F4A1278D2B201210A43D2B21A70FB1D1B78181C01F03AFC0A4B094A1278D2B202218A43D2B21A70064BE9
:400C0000054A1278D2B204218A43D2B21A70BD4603B090BD93000F4073000F4080B500AF044B044A1278D2B201210A43D2B21A70BD4680BD73000F4080B582B000AF021C6E
:400C4000FB1D1A70FB1D1B78002B07D0054BFA1D12781A70044BFA1D12781A70BD4602B080BDC04643000F4003000F4080B582B000AF021CFB1D1A70034BFA1D12781A7005
:400C8000BD4602B080BDC04613000F4080B582B000AF021CFB1D1A70034BFA1D12781A70BD4602B080BDC04623000F4080B582B000AF021CFB1D1A70034BFA1D12781A70D2
:400CC000BD4602B080BDC04633000F4080B582B000AF021CFB1D1A70064B064A1168064A1140FA1D127852050A431A60BD4602B080BDC04608030440FFFF1FFF80B500AFE3
:400D0000064B00221A70064B00221A70054B00221A7000F009F8BD4680BDC04627250020202500202625002080B500AFBD4680BD90B585B000AF78603B1C0E3301221A80D0
:400D4000194B1B78002B04D1FFF7D8FF164B01221A707B68002B1FD0144B7A681A603C1C0E34134A134B101C191C172202F012FA031C23803B1C0E331B88002B0CD10E4B9E
:400D800001221A703C1C0E340C4B181C142119220CF0DCFC031C23803B1C0E331B88181CBD4605B090BDC046E803002014250020DD100000100400201C25002014210100C5
:400DC00090B585B000AF021CFB1D1A70294B1B78042B42D1284B1B78DBB21A1C042313403BD1FB1D1B78002B0BD1244B1E221A82224B5B6820221A80204B5B6830225A800F
:400E000010E0FB1D1B78012B0CD11C4B96221A821A4B5B68C822D2001A80184B5B688022D2015A80164BFA1D12781A703C1C0E34124B181C0AF0D8FE031C23803B1C0E337F
:400E40001B88002B08D10C4B1B78DBB204221343DAB2094B1A7005E004E03B1C0E33832252001A803B1C0E331B88181CBD4605B090BDC0461C250020272500200001002014
:400E80002625002080B584B000AF78600A1CFB1C1A700023BB60BB68002B20D07B689A79BB681A703B1C0F3300221A7012E03B1C0F331B780133BA68D3183A1C0F3212782C
:400EC00079688A5C1A703B1C0F331A783B1C0F3301321A703B1C0F331B78052BE7D9BD4604B080BD80B582B000AF78607B681B781A1C7B6801331B781B029BB213439BB2BF
:400F0000181CBD4602B080BD90B585B000AF78603B1C0F3300221A707B689A890B239A4237D17B681A1D7B683C1C0F34101C00211A1C40230CF022FC031C23703B1C0F334A
:400F40001B78002B1DD17B685B68181CFFF7CAFF031C1A1C022313409BB2002B08D0104B1B68822251007A68081C111C984708E00B4B1B680622111CFF317A68081C111CB1
:400F80009847084B1B78DBB201229343DAB2054B1A703B1C0F331B78181CBD4605B090BD142500202725002090B585B000AF78603C1C0F347B68181CFFF7A6FF031C237056
:400FC000144B1B78DBB21A1C012313401FD13B1C0F331B78002B16D03B1C083312229A707B689A893B1C08331A803B1C08333A1C0F321278DA707B683A1C08321868111C79
:401000000BF018FF03E07B6818680BF07BFFBD4605B090BD2725002080B582B000AF7860BD4602B080BDC04680B500AF034B00225A70024B00221A70BD4680BD24250020CC
:4010400080B582B000AF7860BD4602B080BDC04680B500AFBD4680BD80B584B000AF78603B1C0E3300221A707B689B79002B1CD13B1C0F3300221A7012E03B1C0F331B78C0
:401080007A68D35C002B04D03B1C0E3301221A700BE03B1C0F331A783B1C0F3301321A703B1C0F331B78052BE7D93B1C0E331B78181CBD4604B080BD80B582B000AF021CCC
:4010C000BB1D1A80BD4602B080BDC04680B582B000AF7860BD4602B080BDC04680B584B000AF021C3960FB1D1A70A34B1B78DBB201221343DAB2A04B1A70FB1D1B78712B60
:4011000000D91EE19A009D4BD3181B689F463B1C0C3307221A703B1C0C3300225A703B1C0C33181C03F09CFA3B1C0C3307221A703B1C0C3301225A703B1C0C33181C03F05B
:401140008FFA8F4B1B68181CFFF786FF031C002B11D08B4B1B68181C02F00AF8884B1B68181C0021FFF78EFE854B1B68181C0121FFF788FE19E0834B1A78834B1A70834B5D
:401180001A78814B5A70824B1A787F4B9A707E4B181C01F0EDFF7C4B181C0021FFF772FE794B181C0121FFF76DFE03200AF0DEFB784B04221A70C5E03B68181CFFF740FFE3
:4011C000C0E03B681A78744B1A70BBE06A4B1B78DBB21A1C202313400ED1704B1B78102B02D16E4B0522DA706D4B1A786B4B101C191C0AF0C3FCA5E0A4E03B68181CFFF740
:4012000065FF9FE03B68181CFFF760FF614B02221A7097E05F4B04221A7093E05D4B1B78022B41D0544B1B78DBB21A1C012313403AD0514B1B78DBB21A1C042313400BD0CB
:40124000544B03221A704C4B1B78DBB204229343DAB2494B1A7027E0474B1B78DBB21A1C082313400BD04B4B04221A70424B1B78DBB208229343DAB23F4B1A7014E0454B64
:401280001B78032B10D1434B04221A70454B1B78002B09D10120FFF793FD031C002B03D13C4B03221A704DE04CE03B681B88181CFFF702FF46E03A4A3B68111C1A1C02238C
:4012C000081C111C1A1C01F03AFF354B1B789A00354BD318354A111C1A1C0423081C111C1A1C01F02CFFFFF7B3FE2BE0FFF79CFE28E03B685B88162B05D83B1C0E333A6851
:4013000052881A8003E03B1C0E3317221A803B683A1C0E321288198800230904090C1B0C1B040B43181C111C0BF090FD0AE03B68181CFFF739FE05E03B68181CFFF76CFEAB
:4013400000E0C0460C4B1B78DBB21A1C112313400FD0094B1B78DBB201229343DAB2064B1A70134B1B68FA1D11783A68081C111C9847BD4604B080BD2725002000230100C9
:401380001C0100207CF1FF0F140100207DF1FF0F7BF1FF0F1C250020202500206C010020242500202625002000210100182500201425002080B582B000AF00237B6007E050
:4013C0000A4A7B68D31800221A707B6801337B607B68002BF4D000F00BF8002000F040FB00F036F9BD4602B080BDC0464025002080B582B000AF244B1B68DAB2234B1A70F5
:40140000224B1B787B607B680F2293437B60204B1B78DBB21A1C0F2313407A6813437B607B68F02293437B60194B1B78DBB21A1CF02313407A6813437B60134B7A681A6020
:40144000144B154A1A60154B154A1A60154B1B687B607B680F2293437B607B68062213437B60104B7A681A60102001F0C5FA0E4B1020191C01F030FA1020032101F052FA3B
:40148000BD4602B080BDC04600FF28402825002062F1FF0F0800284000020001040028400008A00100040240A11F000080B582B000AF00F095FF00F04BFF0020002100F06C
:4014C00057FF0020002100F09BFFFF2000F02AFF402000F06FFF084B1B687B607B68074A13437B60044B7A681A60102001F06EFABD4602B080BDC04604002840001008808F
:4015000080B500AF0C4B1B78002B04D1FFF752FF094B01221A70FFF7C9FF00F0ABFD074B01221A70064B064A12688021C9030A431A60BD4680BDC046B1100020A8100020F2
:401540000400284080B584B000AF021CFB1D1A70FB1D1A78FB1D01321A70FB1D1B78012B00D10BE0FB1D1B78074A101C191C00F08FFA031CFB60FB68002BE9D0FB1D1B78D3
:40158000181CBD4604B080BDB010002080B582B000AF7860084B00221A707B68DAB2074B1A70054B81221A707B68181C00F03EF9BD4602B080BDC046A9100020AA10002085
:4015C00080B500AF124B00221A70124BFF221A70104B1B78DBB2181CFFF7B4FF031C1A1C0C4B1A700B4B1B78DBB2002B0DD1084B1B78DBB201221343DAB2054B1A70054B47
:401600001B78DBB2181C00F011F9BD4680BDC046A9100020AA10002080B500AF044B1B78DBB21A1C01231340181CBD4680BDC046A910002080B582B000AF7860034B7A68F2
:401640005200D35A181CBD4602B080BDAC10002080B582B000AF00237B6006E07B68181C00F064F87B6801337B607B68002BF5D0BD4602B080BDC04690B587B000AF7860CC
:4016800002237B610023391C13311A1C9218D3180B7000223B1C123392001A703C1C113400F0DBFE031C23701E4B7A699200D3581B68FB603B1C12331B780F22111C9940E8
:4016C0000B1CDA43FB681340FB603B1C12331B780422141C9C40231CFA681343FB60124B7A699200D358104A796989008A581268391C133109780720041C8C40211CC9434E
:401700000A401A60074B7A699200D358FA681A603B1C11331B78181C00F0A3FEBD4607B090BDC046E82401000025010090B589B000AF786002237B6100223B1C133392008D
:401740001A700023391C12311A1C9218D3180B700023FB61314A7B68D3181B78BB61304B7A699200D3582E4A796989008A581268391C133109780F20041C8C40211CC9438F
:401780000A401A60BB69022B01D10023BB61BB69012B01D00623FB613C1C113400F05DFE031C23701F4B7A699200D3581B68FB603B1C12331B780722111C99400B1CDA4339
:4017C000FB681340FB603B1C12331B78FA69141C9C40231CFA681343FB60124B7A699200D358FA681A603B1C11331B78181C00F038FE0D4B7A699200D3580B4A79698900CF
:401800008A58126800210120041C8C40211CC9430A401A60BD4609B090BDC04640250020E8240100002501001825010090B589B000AF78603B1C1B3300221A703B1C1B3311
:401840001A784A4B9200D358FB61494A7B68101C191C00F01DF9031C7B61FA69454B9A420AD87B69FA69111C99400B1CFB61FB69FF2212041343FB6100F0B2FD00F068FD8E
:401880003D4A7B68D3181B78013B9BB2181C002100F06EFD394A7B68D3181B78013B9BB2181C002100F0ACFDFF2000F03BFD402000F080FD102001F09FF8314B802252026E
:4018C0001A60C0462E4B1B681B0C1B04FAD12D4B01221A60102001F0A5F8102001F076F8102001F089F8284B1B683B613A69274B13403B61264A7B68D3181B781A1C25494C
:401900007B68CB181B781B0413433A6913433B611D4B3A691A60204B1B683B613A691F4B13403B613B691E4A13433B61102001F04DF87B68181CFFF79FFE3C1C0F3400F0A0
:401940008CFD031C2370144B3A691A60002000F07BFD0B4BFA691A603B1C0F331B78181C00F07FFDBD4609B090BDC046740100203C250020FFFFFEFF44250020302500200B
:401980000C002840140028400800284000FF80FF342500203825002004002840FF1FDFFF2000200080B586B000AF7860234B1B6899B2234B7A685200D15200237B61214B4D
:4019C0007A699200D258204B9A4215D81F4A7B68101C191C00F05CF8031C3B61184B7A685200D35A1A1C3B69111C19410B1C99B2134B7A685200D1527B68181CFFF796FE7B
:401A0000102000F0F9FF124B1B68FB60FA68114B1340FB60FB68A02212021343FB600C4BFA681A600C4B0C4A11680C4A0A401A60102000F0CBFFBD4606B080BD0C00284036
:401A4000AC10002074010020FFFFFEFF3C25002004002840FF1FDFFF0800284000FF80FF80B584B000AF78607A68032313407B60064B1B68FB607B685B02FA681343FB607B
:401A8000024BFA681A60BD4604B080BD0400284080B584B000AF786039603B68DB08FB603A680723134001229A403B1C0B331A707A68FB68D3181B783A1C0B3212781340C5
:401AC000DBB2002B01D0012300E00023181CBD4604B080BD80B586B000AFF860B9607A60BB68DB087B61BA680723134001229A403B1C13331A707B68002B0DD0FA687B69D3
:401B0000D318F9687A698A1811783A1C133212780A43D2B21A700EE0FA687B69D318F9687A698A181278391C13310978C943C9B20A40D2B21A70BD4606B080BD80B584B0E4
:401B400000AF78600023BB600023FB6014E07B68181CFFF71BFDC046FFF75EFD031C012BFAD07B68181CFFF765FD031CBA68D318BB60FB680133FB60FB68002BE7D0BB688D
:401B80009BB2181CBD4604B080BDC04680B584B000AF78603B1C0F3315497A688A1812781A70144B7A685200D15A134B7A685200D152124A7B68D31800221A70104A7B68A5
:401BC000D31800221A703B1C0F331B783A1C0F3212780C49895C0C4AD154064B7A685200D15A0A4B7A685200D152BD4604B080BDE4240100AC100020B4100020B81000204B
:401C0000BC1000207C010020C41000205425002080B582B000AF78607B68181CFFF7B6FCC046FFF7F9FC031C002BFAD17B68181CFFF7ACFFBD4602B080BDC04680B582B0C4
:401C400000AF00237B6006E07B68181CFFF7E0FF7B6801337B607B68002BF5D0BD4602B080BDC04690B587B000AF78603B1C0F337A497A688A1812781A703B1C0F331A7806
:401C80003B1C0E3376498A5C1A703B1C1033754A796849008A5A1A80734B1B78002B15D0724B7A685200D35A3C1C10343A1C10321288101C191C00F055F9031C23806B4BF8
:401CC0007A685200391C10310988D1527B68DAB26749644B081C111C1A1C00F0D3FF654B7A685200D35A3A1C103212889A4212D3614A7B68D31800221A705E4B7A68520049
:401D0000D25A3B1C1233391C103109888A1A1A8001237B610CE0574B7A685200D15A3B1C12333A1C103212888A1A1A8000237B617B69002B28D13B1C0F331B784F4AD35C82
:401D40003A1C123212889A421ED94B4A7B68D3181A784B497B68CB181B789A4209D37B68181CFFF713FF444A7B68D31800221A704CE0414A7B68D3181B780133DAB23E493C
:401D80007B68CB181A7041E03B1C0E331B789BB23A1C123212889A420CD93B1C0F331B78364AD35C3A1C123212889A422ED27B69002B2BD12F4B7A685200D35A1B02BB603C
:401DC000304A7B68D3181B78BA681343BB603B1C10331B88BA68D318BB60264B7A685200D35ABA68D31ABB60BB681B0A99B2214B7A685200D152BB68DAB222497B68CB18DE
:401E00001A701D4A7B68D31800221A703B1C0E331B789BB23A1C123212889A4216D97B69002B13D03B1C12331B88FF2B05D9164A7B68D318FF221A700DE03B1C12331B8882
:401E4000DAB211497B68CB181A7004E00E4A7B68D31800221A70BD4607B090BDE424010048250020AC100020790100205425002074250020B41000204C2500205025002007
:401E800078010020B8100020BC10002080B582B000AF78607B68181C00F062F97B68181CFFF7E0FEBD4602B080BDC04680B582B000AF00237B6011E00B4A7B68101C191CE4
:401EC000FFF7E6FD031C3B603B68002B03D07B68181CFFF7DBFF7B6801337B607B68002BEAD0BD4602B080BDB010002080B582B000AF7860034A7B68D3181B78181CBD4668
:401F000002B080BDBC10002080B584B000AF78603B1C0F3300221A7001213B1C0E333A1C0F3212788A181A703B1C0F331B780C4A101C191C0122FFF7CDFD3B1C0F331A7899
:401F40003B1C0F3301321A703A1C0F323B1C0E3312781B789A42E7D3BD4604B080BDC046B010002080B584B000AF0A1CBB1D011C19803B1D1A80BB1D1A883B1D1B88D31831
:401F8000FB603B1D1B885B00FA68D318FB60FB689B08FB60FB689BB2181CBD4604B080BD80B500AF102000F027FD2C4B01221A602B4B1B78DBB2181CFFF7F4FC294B1B789C
:401FC000DBB2DBB25BB2002B08DA264B1B78DBB201229343DAB2234B1A703AE0204B1B78DBB2181CFFF7AEFA031C1A1C1C4B1A701B4B1B78DBB2002B06D1194B1B78DBB2D6
:40200000181CFFF713FC24E0164B1B78DBB201229343DAB2134B1A70124B1B78DBB21A1C4023134015D0104B00221A700DE00E4B1B780D4A12780D49895C0D4AD1540A4B5A
:402040001B780133DAB2084B1A70074B1B78002BEDD0102000F0BAFCBD4680BD14002840AA100020A9100020C81000202C250020B010002080B582B000AF314B01221A7096
:402080002F4B01225A702E4B01229A702C4B0C22DA802B4B2B4A9A80294B2B4A9A6000F0D5F800233B6007E0284B3A6892002849D1503B6801333B60214B5B781A1C3B6807
:4020C0009A42F1D800237B600CE0224A7B68D31804221A70204A7B68D31801221A707B6801337B607B68002BEFD000F0BBF8144A1A4B101C191C00F00FFD114B181C00F080
:402100001DFD0F4A154B101C191C00F005FD0C4B181C00F037FD0A4B181C00F0BDF800237B6006E07B68181C00F01AF87B6801337B607B68002BF5D0BD4602B080BDC046E2
:40214000742500209809000048250100740100200000FF0F30250020442500209A0D000090B587B002AF7860314A7B68D3181B78FB607B68D9B2FB68DBB22E482E4A2F4C4C
:4021800000942F4C019400F009FE3B1C0B332B49FA688A1812781A70294AFB68D3181A782849FB68CB181A703B1C0B331B78DB2B09D83B1C0B331B78DB08DAB22249FB685B
:4021C000CB181A7031E03B1C0B331B78EC2B09D83B1C0B331B781B09DAB21B49FB68CB181A7022E03B1C0B331B78F42B09D83B1C0B331B785B09DAB21349FB68CB181A70C7
:4022000013E03B1C0B331B78F92B09D83B1C0B331B789B09DAB20C49FB68CB181A7004E0094AFB68D31800221A70BD4605B090BDE424010074250020AC1000205C2500208C
:4022400048250020502500205825002080B500AF034B034A126840218A431A60BD4680BD0400284080B582B000AF094B1B687B607A68084B13407B607B68802292001343BA
:402280007B60034B7A681A60BD4602B080BDC04608002840FFFCFFFC80B584B000AF78600023FB6017E01A4AFB68D3181B785B08DAB21849FB68CB181A70154AFB68D318C4
:4022C0001B7801335B08DAB21149FB68CB181A70FB680133FB607B681B781A1CFB689A42E1D8102000F088FB0B4B1B68BB60BA680A4B1340BB60BB68094A1343BB60064BB4
:40230000BA681A60102000F061FBBD4604B080BD342500203825002008002840FFFCFFFC0002000180B582B000AF7860C046064B1B68002BFBDB044B7A68120203490A438B
:402340001A60BD4602B080BD000001404000008080B500AFC046044B1B68002BFBDB024B024A1A60BD4680BD000001404000004080B584B000AF0A1CBB1D011C19807B1DBB
:402380001A700B4B1A6807231340FB60BB1D1B881A02FB681A437B1D1B78D900FF230B401343BB60024BBA681A60BD4604B080BD0003014080B582B000AF7860C046064B44
:4023C0001B68002BFBDB044B7A68120203490A431A60BD4602B080BD000001404100008080B500AFC046044B1B68002BFBDB024B024A1A60BD4680BD00000140410000403B
:4024000080B584B000AF0A1CBB1D011C19807B1D1A700B4B1A6807231340FB60BB1D1B881A02FB681A437B1D1B78D900FF230B401343BB60024BBA681A60BD4604B080BDE8
:4024400004030140000000000230800803D00138FDD1C046C046C0467047EFF3108072B6704780F31088704780B500AF0B4B0B4A126801218A431A60094B094A12683021C0
:402480008A4310210A431A60054B054A126807218A4301210A431A60BD4680BD00F02E4000FF2E4080B500AF0E4B0E4A126802218A431A600C4B0C4A126807218A4302219D
:4024C0000A431A60084B084A126830218A4320210A431A60034B034A126801210A431A60BD4680BD00F02E4000FF2E4080B584B000AF78600023FB60154B154A12680121FE
:402500000A431A60134B144A1A60144B134A1268802109020A431A607B68002B13D01023FB600DE0012000F0C1FA00F019F8031C002B02D00023FB6005E07B68013B7B6043
:402540007B68002BEED1FB68181CBD4604B080BD60F02E4078002E400220000010002E4080B500AF034B1A6801231340181CBD4680BDC0460C002E4080B500AFFFF774FF53
:40258000044B044A1268802109060A431A60BD4680BDC04600F02E4080B584B000AF78600C4B1A6801231340FB607B68002B02D0012B03D005E0FFF757FF06E0FFF772FFF1
:4025C00003E0002000F044FAC046FB68181CBD4604B080BD00F02E4090B583B000AFFC1DFFF73BFF031C2370074B074A1268C02109020A431A60FB1D1B78181CFFF731FFC4
:40260000BD4603B090BDC04600010B4080B500AF054B1A68C0231B02134001D0012300E00023181CBD4680BD00010B4090B583B000AFFC1DFFF711FF031C23700C4B0C4ADF
:4026400011680C4A0A408021C9010A431A60084B074A1168074A0A40802109020A431A60FB1D1B78181CFFF7FCFEBD4603B090BD00010B40FF3FFFFF80B582B000AF78609C
:402680007B68022B02D9002000F0E2F9054B1A687B68DB000133DA4001231340181CBD4602B080BD10020B4080B584B000AF786039607B68022B02D9002000F0C9F97B6843
:4026C000181CFFF7D9FF031C002B18D10D4B1B687A68D2000321081C9040021CD2431340FB603A6803231A407B68DB00111C99400B1CFA681343FB60024BFA681A60BD46D1
:4027000004B080BD0C020B4080B584B000AF786039607B68002B02D07B68012B01D1012300E00023002B02D1002000F091F97B68181CFFF7A1FF031C002B18D10D4B1B688B
:402740007A68D20002320121081C9040021CD2431340FB607B68DB0002333A68111C99400B1CFA681343FB60024BFA681A60BD4604B080BD0C020B4080B582B000AF786041
:40278000154B154A11687A680A431A607A680123134006D0C0460020FFF76EFF031C002BF9D07A6880235B00134006D0C0460120FFF762FF031C002BF9D07A6880235B02F1
:4027C000134006D0C0460220FFF756FF031C002BF9D0BD4602B080BD10020B4080B584B000AF786039607B68002B02D07B68012B01D1012300E00023002B02D1002000F05C
:4028000027F9174B1B689B0F9B0701D1C92300E05D23181C00F04AF9124B1B68FB607B681B01114A111C99400B1CDA43FB681340FB600C4B7A68120139689140FA680A4365
:402840001A60074B1B689B0F9B0701D1432300E01F23181C00F02AF9BD4604B080BDC0460C020B4008020B40FFFF000090B585B000AF78603C1C0B34FFF7EFFD031C23704A
:40288000FFF7C4FE031C002B04D00123FB60FFF7CDFE01E00023FB607A680C4B13407B600B4B0B4A11680B4A11407A680A431A60FB68012B01D1FFF78FFE3B1C0B331B78BD
:4028C000181CFFF7CEFDBD4605B090BD0404040010020B40FBFBFBFF80B584B000AF021C3960FB1D1A7080239B05FB60FB1D1B781F2B02D9002000F0ABF8FB1D1B78103305
:402900009B00FA68D3181B68BB60FB1D1B7810339B00FA68D3183A681A60BB68181CBD4604B080BD90B587B000AF0A1CFB1D011C1970BB1D1A70BB1D1B78032B02D90020CF
:4029400000F086F8FB1D1B781F2B02D9002000F07FF8FB1D1A7803231340DB0006337B613C1C1334FFF779FD031C2370FB1D1B789B08DBB29B0014495B181B68FB607B69BA
:402980000322111C99400B1CDA43FB681340FB60BB1D1A787B69111C99400B1CFA681343FB60FB1D1B789B08DBB29B00064A9B18FA681A603B1C13331B78181CFFF751FD0C
:4029C000BD4607B090BDC04600E400E080B582B000AF021CFB1D1A70064BFA1D11781F220A400121081C9040021C1A60BD4602B080BDC04600E100E080B582B000AF021C19
:402A0000FB1D1A70064BFA1D11781F220A400121081C9040021C1A60BD4602B080BDC04680E100E080B582B000AF021CFB1D1A70064BFA1D11781F220A400121081C904029
:402A4000021C1A60BD4602B080BDC04680E200E080B582B000AF021CFB1D1A7001BEBD4602B080BD80B582B000AF786008E00C4B1B68181CFFF7E8FC7B680A4A9B187B607A
:402A80007A6880231B029A42F1D8074B1B687A685343181CFFF7D8FCBD4602B080BDC046900100200080FFFF8801002080B582B000AF021CBB1D1A80BB1D1B88044A1278BB
:402AC0005343181CFFF7C0FCBD4602B080BDC0468C010020F7B59C180023071C01910092237008268025207828432070B96800984A6A9047019B984202D22078A843207051
:402B0000013E6D08002EEED12178CFB2F82F01D9082671422170F7BD70B5051C0E1C00242B789C4208D2A868221C0368311C281CFFF7D0FF0134F3E770BD000038B5051C6B
:402B400000242B789C4218D2AA681168085DC3080F2B00D90F230949D268C85C1055AA680748042B03D9536B211C012202E0536B211C002298470134E3E738BD38250100F7
:402B80003C250020F0B5051C89B000266B789E4265D2AC68206A815D0291002901D101220292E7692978BB5D00930098884201D30136EBE7A268009F0F21D35DA4690B4078
:402BC0002849B000049300227B00225003905818254C0590254819191B18069107933C1C0192009F029AD1198C42E1D2AF68AB88FA68E888115D584300F00AFA3968095D51
:402C000000F0B8F9049B1A49584340005A2802D949084008FAE7BF690A0C039913047B50144F154B8208385514491A55144AC0080F27085517550199012305985A4242522D
:402C4000069A0798002353524352A9688B681A191078013407401770019A0232C0E709B0F0BDC04668250020802500206C2500200000FFFF702500208425002064250020CC
:402C800060250020F0B53E4F4B00DC5B9A5A89B0DA53161B3B4F02967D5C9C466C003A4D059467467C5B394E394F735C03946646F55B8768374C0495BD68665C6C5C029D79
:402CC0000696059EEF0F0794F4190F273C40EE170194AC1974409C4203D2012B05D0013B00E00133FF263F2B00D89E00274D019F6B540F2F29D0002F24D0B44225D8079C5E
:402D0000039D26090596141EAC4200D92C1C049FBA4200D23A1C059E09250027B5427F41F5190A2D13D1171B0397039E5F1CB34205D9069FBE089E42BF417E429F1B164B68
:402D40005F5404E0141C019D01E0141C00256E4637790C4B66465F540B4F0F23BC530C4C2D01A253826897687E183478234033708068826851180F783D430D7009B0F0BD32
:402D80006C25002060250020682500206425002080250020702500208425002010B50E480E4A525C415CFF203F2901D88C00E0B24CB2002C02DB4C00E1B200E0FF2182423E
:402DC00002D95008C1B200E0021C01240298A243C254039AD15410BD842500207025002080B582B000AF78600A1CBB1C1A80BB1C1A887B681A60BD4602B080BD80B582B0B4
:402E000000AF78600A1CBB1C1A80BB1C1A887B681A60BD4602B080BD80B582B000AF021CBB1D1A80BB1D1B88181CFFF73FFEBD4602B080BD80B500AF00F068F8BD4680BDBE
:402E400080B500AF00F06CF8BD4680BD80B500AF00F066F8044B181C00F024F8032000F02DF8BD4680BDC046692F000080B500AF024B181C00F004F8BD4680BD692F0000DA
:402E800080B582B000AF786000F04AF87B68181C00F008F8032000F011F800F037F8BD4602B080BD80B582B000AF7860024B7A681A67BD4602B080BD0000002090B585B094
:402EC00000AF021CFB1D1A700623FB603C1C0B34FFF7C3FA031C23700B4B0B4A1268C021101C8843011CFA1D1078FA68041C9440221C0A431A603B1C0B331B78181CFFF77D
:402F0000B0FABD4605B090BD0CE400E080B500AF024B802252011A60BD4680BD00E100E080B500AF024B802252011A60BD4680BD80E100E090B583B000AFFC1DFFF78DFA93
:402F4000031C2370074B074A126804218A431A6030BFFB1D1B78181CFFF783FABD4603B090BDC04610ED00E080B500AF0EF08CFFBD4680BD002934D00123002210B4884241
:402F80002CD301242407A14204D2814202D209011B01F8E7E400A14204D2814202D249005B00F8E7884201D3401A1A434C08A04202D3001B5C0822438C08A04202D3001B0C
:402FC0009C082243CC08A04202D3001BDC082243002803D01B0901D00909E3E7101C10BC7047002801D00020C04307B4024802A14018029003BDC046D90000000029F0D028
:4030000003B5FFF7B9FF0EBC4243891A1847C046002941D010B4041C4C40A44601230022002900D54942002800D5404288422CD301242407A14204D2814202D209011B0162
:40304000F8E7E400A14204D2814202D249005B00F8E7884201D3401A1A434C08A04202D3001B5C0822438C08A04202D3001B9C082243CC08A04202D3001BDC0822430028F0
:4030800003D01B0901D00909E3E7101C6446002C00D5404210BC7047002806D003DB0020C043400801E08020000607B4024802A14018029003BDC046190000000029EBD06D
:4030C00003B5FFF7A7FF0EBC4243891A1847C0467047C04670B50E4B0E4D0024ED1AAD101E1CAC4204D0A300F35898470134F8E70FF046FA084B094D0024ED1AAD101E1CC0
:40310000AC4204D0A300F35898470134F8E770BD8C2501008C2501008C2501009425010030B50023934208D0C55C0133CC18013C2478A542F6D0281B00E0002030BD10B586
:403140000023934203D0CC5CC4540133F9E710BD031C8218934202D019700133FAE7704710B501F019FA10BD10B500F0DBF810BD10B50749044609780220002907D120465A
:4031800001F030FA002802D1204608F0D9FC10BDA6020020F7B51F4E0024307815460F46002804D00824B76075802046FEBD002F00D1012401F0F0F90098002805D0172D6F
:4031C00003D301204002854201D90124EBE7002CE9D12946384600F023F80400E3D1706800F01CF80400DED1706800F015F80400D9D101F0D9F90400D5D1009806F05CF807
:403200000400D0D106F06EF80400CCD101203070C9E70000940100200020704700207047F8B50D4607460026FFF720FEFFF708FE00F02EFA040065D100F0B8FB040061D16A
:403240003449084600F08AFD0404240C5AD1A80705D0A807800F0421081A401985B2172D02D968002E3886B22B48301881B2384601F076F8040045D1284F034602460028D6
:4032800025D127495E008E5B294610318E4207D99000C01941800221521C4170D2B215E08E420BD10020787690001D49C0194680891FC95C891C4170012012E0052A06D191
:4032C000164806461436418302207071012014495E008E5B9100C9194E80114EB61FF65C4E705B1C521CDBB2D2B2062BC7D30B4800F06CF8002C05D100F084F80749012082
:40330000891E087000F0D6F9002C01D0FF20F8BD0020F8BD39330000940C0000A20100200626010010B503480078012801D100F0A7FE10BDA00100207047000010B5011FCB
:403340000878034A8000105800F0AAFF10BD0000CC10002010B5044604498000085800F00DFF002801D00470001D10BDCC10002038B5044692B2C9B2684600F025FF024AA7
:40338000A1000098505038BDCC10002070B50B49064600204C6805466178002908D06188B14202D32078FFF7D5FF002804D1241D6D1CEDB2082DEFD370BD0000C401002003
:4033C00010B5002801D0FFF7B9FF10BD70B50B4E0446002570606178002905D062882078121D0023FFF7C4FF6D1C241DEDB2082DF1D3024800F0A6FFB06070BDC401002010
:40340000002070471CB5002469460C70142001902346054A05480CF023F904480068401C00D1FF2420461CBD81340000D00100203EB5124A0146FF2000230124126800292A
:403440000DD0012914D0042908D104206946009308814B8110460CF0FEF880B23EBD6846009304814381694610460CF0EFF8F4E768460093048143816946EBE7D0010020E2
:4034800070B54589046841680089030000F026F806240408081D2124002004F0E3FE1BE0022908D0C8B22A4621460AF0C5FB2046FFF786FF10E002202A4621460AF0BCFB51
:4034C0002946204600F018F806E000200BF0BCFD02E020460CF04AF9002070BD30B47446641E2578641CAB4200D21D46635D5B00E31830BC18470000014B0022DB68184799
:40350000D401002070B5448905680089022803D0032809D0FF2070BD2246094C0023A46829460120A04708E0FFF71AFE241DA2B200232946022005F0A2FD002070BD0000DE
:40354000D401002070470000024800214160018041807047D401002070B50C46002186B016460391012802D0022859D116E003A9012005F0DCFD01281BD1039D3246214673
:403580002846FFF7DCFD0095287801900220694608814E816846FFF7B5FF41E0214D002B686809D0049004A9022005F0C0FD01281DD0022006B070BD002812D029884018E1
:4035C0002146FFF7BCFD28880024801980B228806988091D884206D12C801348FFF792FF03E00320E6E788421AD96C6018E004986860E278A378110219430B4A698000232B
:403600001060E3565360032313815181A1788170E178C1706178417021780170042028800020C7E7D4010020EC1000203EB515460C46022803D004280CD000203EBD00917E
:40364000019002206946088107484A8100680CF002F807E00AF0F0FA044B0022DB6829462046984701203EBDD0010020D4010020014AD16090607047D401002003480168E6
:403680008068081A0A21484300097047F810002010B5FFF7DBFB542204490548FFF74FFD03490120C870002010BD0000162601004813002010B5FFF7BDFB10BD70B5134C71
:4036C0002368002B08D0207B1149C20705D04008400020738868A08070BD88680B4AA18880B29268814203D90A4D691A091802E0814202D2411A5118A160A080A0689842DD
:40370000EAD300F015F80BF0C3FF70BDF8100020C0102E40FFFF000010B508461946FFF7A7FF10BD704710B5FFF780FF10BD000003480021016041608160C16070470000C1
:40374000F810002010B502000DD0FFF7F1FF074C0321207B0843207310010A21FFF74EFC2060002010BDFF2010BD0000F810002000B504480A21806848430209FFF7D8FF33
:40378000104600BDF81000200248007B8007C00F70470000F810002070B558490868002802DA574B01221A70022290430860554800695249C00B4031096A08426CD00120F5
:4037C00000F078FA4F4850497C30FFF717FB4B480E216C30FFF712FB4A4820218430FFF70DFB484814219C30FFF708FB4548FF21C131A430FFF702FB4248FF212F31B030C3
:40380000FFF7FCFA3F484149BC30FFF7F7FA3D483F49AC30FFF7F2FA3D493A48491CB430FFF7ECFA37483B49B830FFF7E7FA35483949CC30FFF7E2FA324838490830FFF708
:40384000DDFA30483649A830FFF7D8FA2D4835498830FFF7D3FA2B4833498C30FFF7CEFA28481921C9029030FFF7C8FA2F4D287E697E0C020443A87FE97F2D4A0902014363
:403880002C48914201D1072C08D035229201914208D1042C05D005E0FF2070BD0146042400E0014617486C30FFF7A8FA154821467430FFF7A3FAA87EE97E090201430120F7
:4038C0004003814201D0002900D11B490D487830FFF794FA2A7F687F010218481143814204D01748814201D0052901D113490A3904488030FFF782FA002070BD00F02E4089
:40390000E401002000002E4055650000320300002F3F00003102000010520000EC160000FA12000031D000003AE30000C0F0FF0F580B0000580D0000022000000F0F000030
:403940000505000070B50646581C80B245086D00002408E0304600F07FF81055000A1119A41C4870A4B2AC42F4D3D80705D0D0182038D15CC47FD454C17770BD30B50A4C3B
:40398000002100195B1E07E0541864782502545C2C430480891C89B29942F5DB994201D1515C018030BD000000102E4010B5FF2000F080F90F49FF2048700E481021801DEA
:4039C00041800121417001700A490020C91C4870FFF7E2FE04000AD100F0CCF807210648FFF7FEF9044807211830FFF7F9F9204610BD0000E4010020CC112E4030B5044690
:403A00005B1C1804450C002308E0204600F024F8241D59005B1CA4B250529BB2AB42F4D330BD000070B500210A4D5B1E0AE0541864782602545C344346193480001D891CC2
:403A400080B289B29942F2DB994202D1515C4019018070BD00102E40014940180088704700102E40014A80180180704700102E4010B50B490020487000F07CF8002000F0F4
:403A80003FF9002000F02CF907210648FFF7A8F9044807211830FFF7A3F9002010BD0000E7010020CC112E4010B50B46062812D006DC01280CD0032801D1FFF7D9FF10BD59
:403AC0000A28FCD00B28FAD105480078107010BDFFF76CFF10BD1146184600F02DF910BDEA010020F8B5204DAC6A0127A0071F4E002816DA307806280ED1286A3843286217
:403B00001B480069F903084381B219481030FFF775F9042000F0CEF8134802212830FFF75FF9E00711D0062000F0C4F80F49FF20C91E48707078002802D1686B3843686390
:403B4000094801212830FFF74BF9E0050BD53078042802D1052000F0ADF80348FF2101312830FFF73DF9F8BD40F02E40E701002000002E4010B503212348FFF73FF901208D
:403B8000FFF74AF920483038406A204C80076178800F890001431C480C38FFF72FF96078002808D0401E022181401820FFF786FAC000083800E0B82081B21548FFF71EF947
:403BC0001348032109021438FFF718F910481149B830FFF713F9452189010F48FFF70EF90D480321001FFFF709F90C490C48FFF705F90B480B496038FFF700F9084801213B
:403C00008838FFF7FBF810BD70F02E40EA010020D8102E4090890000041E2E40FF0F000058122E40209000000849087806280BD148780749002803D1486B400840004863D3
:403C4000C86A01221043C86270470000E701002040F02E400148007870470000E701002000B50300FFF73AFC080D050D0B070507090D012000BD032000BD042000BD022095
:403C800000BDFF2000BD0000074A9168D26889B2064B92B2994204D105498A4201D1012100E000210170704780002E4033D000003FE3000010B50446FFF7C2F8072C01D951
:403CC000FF2C01D102480470FFF7B4F810BD0000E70100200149487070470000E401002010B5064A012805D01921C9021046FFF785F810BD1D21C902F8E7000090002E4040
:403D000010B50A4A141D012808D009491046FFF775F808492046FFF771F810BD04491046891CFFF76BF80349491DF3E788002E4031D000003AE300000078074AFF2803D046
:403D40004C2804D9553803E01078087070474F380870107070470000E601002010B50F4A002313600E4A13600E4B18600E4801600E49012008600E490860000290600E499F
:403D80000C4808600D4914300860FF381538506000F0BCF800F0CAF9002010BD08020020F00100201C020020200200200C020020FC01002008120020000200201402002035
:403DC000014610B50020002910D0094B1A689C685118A14209D25868196080188A0704D08A07920F891A091D196010BD002010BDF0010020F8B50024164E671E321F3D468A
:403E00003168136806E01422624310328A58521C1BD0641C9C42F6D36A1C14D02C461422544322460C3288500C214843FFF7C8FF3168002808510AD0316800201034085123
:403E40007068401C70602846F8BD2546E4E73846F8BD000000020020F3B50026F64381B000281BDB1E490968884217D80299002914D01B4F142204463F1D54432546396818
:403E800010354859401C09D0FEF7DAFF38682F1F4159C359994203DBFEF7CCFF3046FEBD214608310091465801590C20704308180C220299FFF743F90948761C001D006840
:403EC000C159B14200D100260549009A091D865008684159491C4151FEF7ACFF0020FEBDFC010020002803DB07490968884202D90020C043704704491422091D096850434E
:403F00001030085870470000FC010020F0B500200D4A451E0346171F50600FE014260146714314680E1DA3510C461668083433511668083435511468401C635039688842DA
:403F4000ECD30020F0BD000000020020F3B50026F64381B0002841DB2349096888423DD8029900293AD0204F142204463F1D54432546396810354859401C2FD0FEF760FF0A
:403F80003868415900292BD0211D009146580C21005971430F46C1190C220298FFF7CFF811480021001D0068761C00590C34C0190160416081600C48001D00680159B1423C
:403FC00000D100260849009A091D865008684159491E4151FEF72EFF0020FEBD3046FEBDFEF728FFFAE70000FC010020FEB504460D4600201E49089E0860471E009001902D
:404000000290002C11D0486885420ED2002A0CD0002E0AD0642E08D808460C3001681C2068430C18207A002801D03846FEBD0120226020721846FFF7DDFE6060401C13D0DD
:404040006681A6810A4827610C3067610179A94200D205710021684601810A462846029B00F040F82846FEBD00202072DDE700000802002038B50124009400F039F838BD4E
:40408000FEB50027164EFF433D4600240EE01C20316860430818017A002906D04068FFF721FF002801D0254603E0641C3079A042EDDA681C12D01C2130684D434419FEF7E5
:4040C000BFFE69466068FFF741FF0546FEF7B2FE002DD9D1216868468847D5E7FEBD00001402002038B50024009400F001F838BD1FB500220C49541E0A60002811DB49686D
:4041000088420ED808491C220C31096850430818406801A9FFF7A0FE401C02D0002004B010BD2046FBE7000008020020F0B50021114A4D1E174611710C3F0B46BD6016E09E
:4041400008461C2460431668041D355114680646235014680836A3551468361DA353044616680A34335318301468491C255078688142E5D30020F0BD1402002038B50021A1
:404180000091002811DB0F49097888420DDA0D4D04010C3529680859002807D0201D0818694600F05FF9002801D0002038BDFEF747FE28680F34015D491E0155FEF73AFE88
:4041C000009838BD24020020F7B582B00025ED43029800240E460560002A49D0002E47D02D48D21C02402D48174601780C30006805E022018258002A0FD0641CE4B28C4257
:40420000F7D3691C3ED02C01211D40180191314600F016F900282BD101E02546F1E71F480C30016820460C300F521C480C30016820460E300E5419480C30016820460F3045
:404240000E543846704300F0ADF814490C310968002808510CD00024009011E00F480C30016801980818009900F017F9002802D0012005B0F0BD0098C019641CE4B2009027
:40428000B442EBD30298054905600C310879401C08710020EDE70000FCFF000024020020F8B50D4600216A468C461180002839DB23490978884235DA214B04010C331968CE
:4042C0000A59002A2ED020460C300B5A801C0E5C184670438018954224D3854222D2002006E007465F43BF18AF4206D0401CC0B2B042F6D36046002814D0114E271DC819A2
:404300000C366A46294600F0F2F800280AD168460088012808D030682946C01900F0BDF8002803D00120F8BD0020F8BDFEF788FD30680F34015D491C0155FEF77BFDF3E728
:404340002402002003460020002B06D0034A5168906852884018511A198070472402002070B5002400F0DCF80D4E002132460C3271600EE0200113680546195013680C3552
:404380005953AD1C13680F3059551368641C1954E4B230788442EDD31171002070BD000024020020014610B5002000290CD0C91C064B8A08596892005C888A18A24202D84F
:4043C00098685A60401810BD002010BD24020020F8B5002827DB19490978884223DA174C05010C342168485900281CD028460C30085A009028460E300E5C401C0E5420684B
:404400002F1DC01900F064F800280CD12068002445590EE0094829460C300068C01900F03CF8002801D00120F8BD00982D18641CE4B2B442EED30020F8BD000024020020D9
:4044400030B50D4604000BD0A800FFF7ABFF6060002805D000202570C0436080002030BD012030BD70B50D46040005D0002D03D00220205E002801DA012070BDFEF7E0FC5A
:404480000221615E60688900405828606088401E6080FEF7CFFC002070BD70B50D46040007D0002D05D002212078615E401E814201DB012070BDFEF7C3FC6088401C00B2B2
:4044C0006080616880000D50FEF7B4FC002070BD10B5040009D0227800216068FEF738FE0020C0436080002010BD012010BDF0B500231D46002802D00224045F0AE001205D
:40450000F0BD46689F00F6598E4201D1012503E05B1CDBB29C42F4DA15700020F0BD0000054B11221A70054A1180064A04491160054908607047000024020020260200208F
:4045400038120020300200202C0200200148007870470000380200207CB505460024FEF7FFFDA8796946087000A8062229460130FEF7E5FD0021684604F0D2F80C2804D0AA
:40458000072804D01F2804D004E0022402E0042400E0272420467CBD10B500F0BDF8FFF759FBFFF75DFB10BD10B503240BF058FD002810D10BF0FCFC00280CD104F006FEFB
:4045C000002808D100F06AFA002804D104F002FB002800D10024024900200870204610BD3802002070B50025044600280ED0A07901280BD8FEF7B4FDA0790028204602D00D
:4046000002F0DEFD03E002F093FD00E00125284670BD38B504460120002C20D0617801291DD800290BD0FF25E535FEF799FD2846FFF712FAC0B22070072803D00EE0FF25E8
:40464000CD35F2E70020694608706846FFF71CFB69460878012801D108202070002038BD70B504460120002C1FD06178012902D92278092A19D8002906D0FF25E53520784A
:404680000726092803D003E0FF25CD35F7E72670FEF766FD2078082808D00020FFF730FB21782846FFF7DEF9002070BD0120FFF727FB2670F4E7000070B50D46040001D0FB
:4046C000002000E00548002802D0012101F0AAFF2946204602F084FA70BD0000BC13002038B5054600200446009022466946284600F06CFE0098002801D00BF093FCA8780A
:40470000214602F0B1F8A878214602F0A0F8641CE4B2052CE9D338BD38B5FFF79BFA042819D0052817D006281AD0032842D007280AD100206946087002460120FFF7B4F91B
:40474000FFF788FA0128FBD138BDFEF7F3FBFFF781FA0128F8D0FFF77DFA0128F5D138BD02F0EAF805E0FEF7E5FBFFF773FA012803D0FFF76FFA0128F5D1A12424012046B6
:40478000FFF76AF901220E4983079B0F0A70022BE5D149880029E2D0104301462046FFF761F92046FFF758F9410849002046FFF759F938BD02F0C4F80120FFF77BFA38BD88
:4047C0003E020020F8B50646002402F00BFE0546304602F01FFE00210346012632468A40174610462F401840002F03D0002801D1224394B2491CC9B20529EFD32046F8BD92
:404800001CB50020694648706846FFF702FF01AA69460A20FFF748F96946042008561CBD10B50C4601F076F9002809D00179002906D0C1788078224602F080FA002010BDD3
:40484000022010BD0148007870470000881300204030C07E002800D00120704700B500F001F800BD88214843064940186030417F491CC9B24177052901D300214177C8B225
:40488000704700009C13002013B501F043F904000BD001F09AFC002807D0214601AA0A310620FFF701F900201CBD02201CBD000010B50C4601F02EF900280AD001F085FC1E
:4048C000002806D0224604490A20FFF7EDF8002010BD022010BD000071130020F3B581B0074601460026029802F074FD0446002F01D0002500E0154D002D21D0284601F0C2
:404900003FF9032C04D13946029802F08DFD06463846029901F09BFF032C06D0002C10D00121384601F01AFA03E03146384602F02FFF284601F05CFE0221284601F072FE5D
:40494000FEBD3846029901F082FFFEBDBC13002070B50446002503F01DFB002801D00C2070BD2078611C02F0E3FAFF2802D01F25284670BD02F030FBFF2804D02178621C6B
:4049800001F0DAFEF4E70725F2E710B503F002FB002801D00C2010BD02F0A2FA002010BD70B50D46044610210BF07CFA1021601806460BF077FA334610221946204603F004
:4049C00015FB102130460BF06DFA02202870204604F058F870BD70B504464078217802028006850FE0781143A67809050002090D0643084601F08EF8002812D0022D10D018
:404A0000032D0ED0002E08D00179092909D0002907D0214600F0A1F870BD0089002103F066FF20460BF0FEFA70BD0020704770B50446002503F0AEFA002801D00C2070BDE0
:404A40002078611C02F074FAFF2802D002F0B6F900E01F25284670BD10B504F0BBF800F0F6F8002010BD10B5044600786178E2780843A1781143084321790843617908436A
:404A800005D003F079FA002803D00C2010BD122010BD204602F094FB002010BD10B5044803F0E2FA02F094F900F004F8002010BD58130020F8B5114D00266E706E736E7162
:404AC0006E76AE76EE766E75AE70EE70AE712F46EE730120B03778723F2078719B20B87100F00AFA0024204601F036FB641C2406240EF8D03E72FE71AE73F8BD9C130020D0
:404B000070B505460E46084602F06CFC0446304602F080FC0121A9400A46224001400A4301D0012070BD002070BD10B50446084602F070FC0121A140014201D0012010BD64
:404B4000002010BD10B5FFF785F8032804D101F0F7FE0120FFF7AEF810BD70B5044600790D4609281CD000281AD020464030817E491C8176204601F03BFDA078FFF76EFEFC
:404B8000064602462946204600F00CF8002806D1A0783146FFF790FD28460BF043FA70BD0846FAE7F7B5054648780C468006870FC8788978000282B001436846818028468A
:404BC00001F00EFB060007D021462846049A00F091FB304605B0F0BD384600F039FC0746034601AA2946204600F0CAFA68468088231DC0B20090A878FF22049901F0AAFF3A
:404C0000684680883B46C2B2A878049902F054FBDFE770B5002500242846FFF7D3FD060010D03046E040C007C00F07D02146284601F001FE21462846FFF750FE641CE4B286
:404C4000052CEED36D1C2D062D0EE4D070BD10B502F0BEF8FFF72EFF0BF04CFA002010BDF8B5002400F081F80123012800D10124104F00203E4620360425082203E0002878
:404C800001D0002100E031460979002907D001290BD002290BD0114681402143CCB2401C0006000EEBD07C70F8BD1C43F7E72C43F5E700009C13002010B5FFF7D1FF10BDA9
:404CC00010B50B4681791943817103D08078114602F0B6FA10BD10B582798A43827102D1807802F0C5FA10BD70B5FF25D53502242846FEF7B1FE0C4A9178002901D00229ED
:404D000006D1137852789A18282A01D9032402E0032900D101244105490DE00201432846FEF7A0FE70BD00003A02002010B500F022F8002807D0012805D0032801D00428FE
:404D400001D0002010BD012010BD014610B50020C90701D000F009F810BD014610B50020C90701D000F001F810BD10B52020FEF773FE000A10BD10B51820FEF76DFE410594
:404D800001D5042010BD4007800F10BD38B5044640060CD5684601F0D9FD0220FFF78CFF072002F031F96846007801F03FF9200613D5FFF7E0FF01280FD1684601F0C6FD33
:404DC0006846007800F09AFA072002F01DF9012001F076FC0220FFF76FFF38BD10B5034A0178117002F01FF9002010BD3A02002010B50446FFF7B9FF002801D00C2010BDCD
:404E0000A27B01211848002A827801D00A4301E05208520082706279012A0FD0C17849084900C170207901280CD06188208802F01DFF2080207904280BD00DE0C2780A4338
:404E4000C270EFE7E01D02F0A3F90848808C208002E0E01D02F09CF9054920798870204602F0F0F8002010BD9C130020481300203A02002038B50478FFF777FF844201D11E
:404E80000C2038BD002C18D0072069460870FFF74DFF012807D10121684600F08DF8012801D0092038BD6846007802F0ADF8FFF71BFF02F0F7F8012010E0FFF737FF0128BB
:404EC00006D1684601F042FD6846007800F04AFA072002F099F802F0D9F80220FFF7ECFE002038BD10B5034A0178517002F080F9002010BD3A02002038B568460BF028F869
:404F0000002801D01F2038BD01210098C90201804180002505714571857107214173857302F090F8009C202200212046FEF710F925702A460021601CFEF70AF9204602F093
:404F400072F8204602F054F900980BF06BF8042200210248FEF7FCF8002038BD3A0200200346084800B5834209D8184600F0D2FD002804D00089984201D1012000BD002001
:404F800000BD0000FF0E0000074A9179491C8906890E917138220A4092014907090E114308430249084070479C130020FF0E0000C006C00E70470000F8B507460E4600241F
:404FC0000D4803E0002C01D0002500E005462979002905D0641C2406240EF3D00020F8BD204601F0B9F82E712046FFF7CDFF28813C700120F8BD0000BC13002010B503F077
:4050000029F80222002100F003F801F089FE10BD10B5094B40074907000F090F185A595A40185043C0086421FDF7E8FF002800D1012080B210BD00006A260100F7B53D2018
:40504000405C88B016460C46002829D030786946087200252046FFF7FBFB012800D00125204603A938300191009023460327A17E34332A46206A03F011F802A808990090A0
:405080000B46019120463A4603A9243002F090FF02466846007A3070204601F049F810460BB0F0BDFFB587B00C4605461078694608723D20005D1746002826D00026204646
:4050C000FFF7C6FB012800D00126204603A93830019100902346A17E34333246206A02F0DDFF02A80090291D019120462B1D03A924300A9A02F05CFF02006846007A3880EB
:4051000002D1204601F014F810460BB0F0BDF7B53C20405C88B015460C4600280CD0287869460872002806D000262046FFF790FB012803D003E01F200BB0F0BD0126204607
:4051400003A938300191009023460327E17E34333246E06902F0A2FF02A8089900900B46019120463A4603A9243002F053FF02466846007A2870204600F0E4FF1046DBE70B
:40518000FFB505463C20405C87B016460C46002810D0084601F024F801280BD0308869460883002809D000272046FFF751FB012805D005E000200BB0F0BD0220FBE7012753
:4051C000204602A93830019100902346E17E34333A46E06902F062FF06A80090291D019120462B1D02A924300A9A02F013FF02466846008B30806846008BA870000AE8707A
:40520000204600F09FFF1046D5E770B50D460446FFF71EFB01280AD0E87AA97A00020143A07801F04DFC012808D0002070BD00222421204602F064FC242070BD28214C20E4
:405240000155204600F09AFB282070BD002801D0002000E003484030C07F012800D0002070470000BC1300200146002049070ED50021084B03E0002901D0002200E01A4679
:405280001279022A04D0491C0906090EF3D0704701207047BC1300200146002049070ED50021084B03E0002901D0002200E01A461279022A04D0491C0906090EF3D07047BA
:4052C00001207047BC13002010B5044680346068002803D00AF0BAFE0020606010BD4030417070474030817070474030017070470171704792001018C166704770B53C2533
:4053000001F0F8F8040004D020460021433001F091FB2946204600F0C0FB002C02D0A07801F07AF870BD000010B5002801D0002000E00348002802D0008903F01FFB10BDB1
:40534000BC13002010B5002801D0002000E00448002804D00179072901D100F041F810BDBC13002010B501F0C5F8002802D0807801F052F810BD00207047000070B5054623
:40538000008A00281ED010491122897A1140C90618D5294640314A8A098A521C4A4392B2D10800D10121540801E0621A94B2A042FBD9FFF7CBF8012804D1298AA8782246B8
:4053C00001F05CFC70BD00004813002000230B60052A04D292001018C26E0A60C366704738B5044600200090A079002814D14020015D052901D00E290ED168460AF0B8FDB8
:40540000002809D12046009902F062FB03481021C28A2046FFF754FC38BD00004813002010B50B4604460146184602F031F8002802D020460AF000FE10BD13B5044601AA36
:4054400011460620FEF730FB6846818861811CBD002800D10220704770470000F8B504462346401D543300909A1EA078911E01F07CFA25464035A88A298A8000FDF7BEFDE6
:40548000401E81B2688A884203D96982A07801F062FF20460021433001F0CCFA8020FEF7DBFAE88102F0D6FDE989891C8AB26179FFF7AEFD01F034FC02F0CCFD2A8A6179ED
:4054C000FFF7A6FD074601F01DFC688A00280BD0FF26F1363046FEF7BFFA0321090201433046FEF7BFFA02E0002001F022FFFF206130FEF7B1FA6E8A002E0BD0704310494F
:40550000FDF7DCFD0004000C01D0401C80B20D49488002E00B4800214180288A704381B2A07801F073FE2837B9B2204602F0A2FBE98AA07801F0C2FDA07801F0ABF9F8BD8C
:40554000710200003E0200207FB504468034616805460E46183108226846FDF7F0FD31462031082202A8FDF7EAFD102168460AF099FC6068102108300AF094FC60682B46E3
:40558000083024331022694602F030FD7FBD10B504460821FFF79FFB10212046FFF79BFB207905281FD006281DD008281AD12189002003F05BF9072020712046FFF748F9E4
:4055C000014620464030012913D00E21017000210176204600F02CFF2046FFF775FE2046FFF7CCFE10BD20890122002103F022F9E1E70521EAE70000FFB581B01F460446B8
:405600000821FFF768FB10212046FFF764FB2079082803D0092804D0042203E00422012501E009220025204600F0C6FD264600204036307022712046FFF746FE0398002D1F
:4056400002D0012808D00BE001280AD120890022029903F0EFF804E02189029803F006F9012700203076012F04D0204600F0E0FE05B0F0BD02983073204602F06DFA05463F
:4056800005480121C28A2046FFF71AFB002DEFD109202071ECE700004813002070B50C460546FFF7D5F8012809D108212846FFF712FB0023012221462846FFF79DFF70BDCD
:4056C00010B5044600F078FD2046FFF7FDFD00214034217010BD70B505461A24FFF7B8F8012809D108212846FFF7F5FA0023012221462846FFF780FF70BD0000F8B5044666
:40570000002000900E4668460AF032FC002801D00D20F8BD8420005908212030009D00F0F4F920460421383000F0EFF9002E02D1204600F07FFD2946204602F059F90E48B7
:405740000821C28A2046FFF7BBFA204600F0D7FE25464035002808D0204600F023F8002801D0092028700020F8BD08202870204600F03EFFF7E7000048130020014610B5E0
:4057800040310A460978082906D0092907D00A2901D100F091F810BD0B20107010BD00F001F810BD70B50446007925464035052805D0062803D008280FD00C2070BD0322C6
:4057C0000621204602F09CF90D480821C28A2046FFF776FA1120287010E006202873204602F0BAF90646AA8A0A20424301212046FFF766FA002E01D109202071002070BD66
:405800004813002038B504460020009068460AF0AFFB002801D00D2038BD2046009D00F08BF908202071204600F004FD2946204602F010F900213D2001550F204021085581
:40584000204600F0D5FE002038BD00B5024600F0B3FC10214032117000BD10B50446FEF7F7FF012809D04020005D112805D100231A4606212046FFF7BFFE10BD10B5FFF75A
:4058800086FE10BD38B504460021684600910AF06FFB00280CD12046009902F052F905480821C28A2046FFF70BFA0D204034207038BD00004813002038B504460021684691
:4058C00000910AF055FB002801D00D2038BD2046009902F02BF905480821C28A2046FFF7EFF90C2040342070002038BD4813002000787047F8B50025002801D0002400E0D9
:405900001A4C002C28D0204600F05FFC002823D0207903281CD005281CD026464036B18AA07801F081FCB078012815D10021204601F0CBFD274680373868002802D00AF076
:4059400085FB3D600020B0702079072805D007E0042000E006202071F8BD2046FFF70EFD0221204600F05EFEF8BD0000BC13002010B54C22115400F046F810BD10B5044654
:40598000FF21FFF7A8F909202071A07801F07CFC10BD000038B5FF216A461180002801D0002400E0064C002C08D011460620FEF77BF8684601882046FFF73FFD38BD0000DE
:4059C000BC13002010B504468079002809D022214C200155FF212046FFF77DF9204600F012F810BD10B5037902464032002B03D01173092B02D003E0002100E0222111735D
:405A000000F001F810BDFEB504460089002701902781207926464036002817D0012815D002280AD112E002AA6946204601F01EFD002807D100980AF0FFFA204601F03EFD51
:405A40000028F0D02046FEF74BFEB776254680352868002802D00AF0F9FA2F606868002802D00AF0F3FA6F60317B002902D0019800F044F8A078002100F020FF2046FFF7B7
:405A8000BDFAA07801F006F8A07800F0C5FC0B20FFF712F900F004FCFEBD70B50E46054602F0D4FA044606702846FEF7D1FE014601204140204661700C3000F0A4FF002DF6
:405AC00010D02889608028464030C1782171002E10D169796171018AE180418A2181808A608107E01820FDF7B7FFC005C00F207100206080204602F062FE70BD0A4610B59D
:405B00000146002002F052FF10BD10B509F0A6FF10BD000000B50146FFF74AFA002801D0002000E00348002802D002898A4200D0002000BDBC13002038B5044680346068A4
:405B4000002806D168460AF023FA002801D100986060606838BD000010B5014600F040FB0128887802D0FEF77DFE10BD88214843024940186030007F10BD00009C13002061
:405B800070B5054604464035A87F012811D1A1788820084A484380186030067F3046FEF7AFFF002805D10220A877A078314601F025F870BD9C13002010B50E4CE0790028A8
:405BC00016D0FFF726F80C48827FC17F808B00F06FFB01280CD10020E07100F0C0FE0446AC20FDF739FF010B02D0204600F00EFA10BD00004C1400209C1300207047704784
:405C0000490510B5490F0B00FDF768FC060704080C0C0F073E21FFF7ABFE10BD0821FFF7E1FE10BDFFF7EFFE10BDFFF7CBFE10BDF8B507460025002D01D0002600E0204EEC
:405C400000F068FE3046403044890021418100F06BFE304600F0B9FA01282BD1A00702D52846FFF747FEE00602D52846FFF792FEA00601D5FEF7CDFF600601D500F0CCFA9A
:405C8000200602D5284600F01DF8600702D5284600F0FEF9380402D52846FFF753FB780402D52846FFF740FBE00703D021463046FFF7A6FF6D1C2D062D0EBCD0F8BD0000C0
:405CC000BC130020F8B5002801D0002400E0204C002C39D025464035A878012834D1E98AA07801F0EBF92046FEF7B2FD01282BD002F0B0F92A8A6179FFF78AF9064601F0CF
:405D000001F82836B1B2204601F0B4FFE98AA07801F0D4F9FF206130FDF79EFE6E8A0D4F0146002E11D0304648430B49FDF7C6F90004000C01D0401C80B27880288A704398
:405D400081B2A07801F062FAF8BD0020F5E70000BC1300203E0200207102000070B50D46124A010001D0002401E014462034002C1BD0204600F034FA01280AD188204843ED
:405D800080186030007FFEF7BBFE002801D101F06DFE20464030817E491B8176204600F027FC2089294602F0A2FD70BD9C13002070B503460088FFF7ADFE040013D000F07C
:405DC00004FA00280FD02079092819D02546997840352973204601F0BFFE0646A878012803D0AA8A02E0022070BDEA880A20424301212046FEF764FF002E01D109202071C2
:405E0000002070BD0EB5002217216B460292198100905A810120029B00990AF089F90EBDF8B5184E0024F079002820D10025AC20FDF712FE000B21E0204600F00BFEFDF703
:405E40000BFE07462A46214600F032FA01280FD00D48012187838577C477F171002D01D0002000E02030002801D000F0C1FBF8BDAC20FDF7F1FD000B641CE4B20028DBD16C
:405E8000F8BD00004C1400209C13002010B50088FFF740FE002809D0014640310C460978082905D00B2903D00C2010BD022010BDFFF778FC002801D009202070002010BDD3
:405EC00070B503460088FFF725FE040008D0254640352878082805D00B2803D00C2070BD022070BD8420005910220830991CFDF726F92046FFF728FB2878082804D02046CC
:405F0000FFF7DAFC002801D00A202870204600F06FFB002070BD000010B50C46002121700088FFF7F7FD03000BD000F04EF9002807D009481121807A0840C00603D41120EB
:405F400010BD022010BD022020701A8A1889002102F048FD002010BD48130020F8B50F46002100910088FFF7D5FD040012D000F02CF900280ED0E079410641D4617E0226ED
:405F80004A07002A08DB8907402500291ADA2843E07135E00220F8BD02F058F80021017021894180A1898180217E4170E189C1803E7005460178134802F07AFA284602F0D1
:405FC000B5FC1DE0204600F011F9012806D0684609F0CEFF002803D00720F8BD2A20F8BDE07900992843E071204601F0DFFD607E0421304360760448C28A2046FEF760FECC
:406000000020F8BD1D040000481300203EB500220F236C460292238100910190628169460EC900200AF084F83EBD000070B5054600F060FA040024D00320207125460026AB
:406040004035EE76E6702046FFF708FA01F01EF80920FEF731FEA07800F00AFD0121204600F0E0FA2E706E70AE7000212046FFF714FD0649887B401C8873012001F038F9CA
:4060800070BD284601F000F970BD00009C13002010B5002801D0002400E00A4C002C0FD020464030417802290AD1002141702046FEF7CEFB002803D10221204600F0B2FA90
:4060C00010BD0000BC13002070B503460D460088FFF720FD04000BD000F077F8002807D012481121807A0840C00603D4112070BD022070BD20464030418A008A491C41431F
:406100000804C10C5888884201D2122070BD20822079072802D12046FFF730F9022028702089002102F086FC002070BD48130020016A491C016204D1817E491C4906490E16
:4061400081767047C169491CC16104D1C17E491C4906490EC176704770B500250646002801D0002400E0114C002C1CD0882200212046FCF7EDFFA6700020264620714036F2
:406180003070204600F018F8204601F093F9084820820848B577807A1121084000D001202075012070BD002070BD0000BC130020B80B000048130020002101628176C16129
:4061C000C17620300177417770470079002805D0012803D0022801D001207047002070474030807F002800D00120704740300078002807D0012805D0052803D00E2801D0EA
:40620000012070470020704710B5807801F002F9002800D0012010BD10B500F0A0FB0446AC20FDF719FC010B02D02046FFF7EEFE10BD000070B5054604464035A87F002840
:4062400023D1FF206075A0788821144A484380186030417F8823491CC9B24177A078584380186030052901D300214177A0788821484380186030467F0677A1783046FEF771
:406280003FFC002802D00120A87770BD0220A877A078314600F0B2FC70BD00009C1300200020401C0006000EFBD0002070470000F0B515468207920F85B0C004C00E02921B
:4062C0006A469080002D01D0002400E0514C002C29D0084600F0BEFB03906846808800280BD00298012845D0022843D003280CD03D20005D012872D086E00398FDF7ACFBFA
:4063000001462046FFF799F87EE00020029002A809F00EFE002807D03D20005D012876D12046FFF705FF72E06846029E8388324600210398FDF706FB0398FDF78DFB0146AF
:406340002046FFF77AF8284600F0B0FA01AA21463046FEF773FE002806D0304609F058FE3D204C21085528E0F5773146204601F0EFF94CE0002000902789684609F0C8FD4D
:40638000002802D0002005B0F0BD6846009E8388321D00210398FDF7D5FA0398FDF75CFB01462046FFF749F8284600F07FFA25464035287E00280CD103E02046FFF7DEFAF9
:4063C00025E001AA21463046029BFEF76BFE002806D0304609F012FE3D202873EDE710E00298FFF739F8390A000101433770717068468088B070000AF0703046FFF702FD60
:4064000005E02046FFF794FE284600F04FFA0120B9E70000BC13002010B5044A917B002901D0491E9173FFF797FE10BD9C130020F8B5074606464037B87F00283DD0B07836
:406440008821009048431F4945186035287F0099FEF76BFB012831D0287F401CC4B2052C00D300240020B877FF276F772F77A87702460146009800F041FD717DFF2903D03A
:40648000304600F0D8FF777501F0F0FA00252F462246694630460097FEF798FF0099002902D03046FEF759FB641CE4B2052C00D300246D1CEDB2052DEAD3F8BD0320B877DF
:4064C000F8BD00009C13002010B502460021084B03E0002901D0002000E018460479944204D0491C0906090EF3D0002010BD0000BC13002000B50120FFF7E6FF00BD10B5D8
:40650000044601F0A3FD2189018080346168416061682831816002F0C3F910BDF7B50646087982B00C46092807D0A078F0770846FFF756FE012806D010E0304609F07CFDC6
:40654000022005B0F0BDA1788820284A484380186030007FFEF7D4FA012810D0A078FEF775FE01280BD037780121304601F02BFA25462035062F36D00B2F0FD107E06846DB
:40658000027C21463046FEF74BFF0D20D9E72046FEF75EF9012801D1002028772046FFF7DBFA054604AA21463046FEF7B0FD01205F2108556946087C0090A07833463A466D
:4065C000294600F0C7FA69460A7CA0780323294600F072FEA0782946FEF76EF8304609F02BFD0020ADE70120D7E700009C13002010B502464032937F0021002B03D1927E9D
:40660000002A00D00121064AD279002A00D000210279092A00D10121807800F077FE10BD4C14002070B50C460646FEF711F9002814D1012C0ED935464035A87800280DD144
:40664000687802280AD03079092807D03046FFF7DBFD0446204600F086FD70BD0124F9E770B50D4601280BD0082808D1A8241146B020FDF7F7F929462046FDF7F3F970BDAE
:406680002020FAE710B501460820FDF7EBF910BD10B50446FF20F130012C01D1FF20D530002200F07EFE1020FDF7D6F90349A043088001461020FDF7D5F910BD42020020CC
:4066C00010B504461020FDF7C7F90449A043088001461020FDF7C6F910BD00004202002010B50446012802D0082C07D102E0FF20D53001E0FF20F13000F048FE1020FDF7FD
:40670000ABF904492043088001461020FDF7AAF910BD00004202002010B504461020FDF79BF904492043088001461020FDF79AF910BD000042020020F8B507460120B840FD
:4067400085B214460E46012229467C2000F029FE32462946782000F024FE6078217800020143E078A5780002054360792679000206430C2047430D2080013C182046FDF713
:4067800071F9241D29462046FDF76CF9201D3146FDF768F9F8BD8B00034310B5D10191201943C000FDF75EF910BD000070B505460C46407829780002014341200001FDF73E
:4067C00051F9E878A978000201430A48FDF74AF960782178000201438320C000FDF742F9E078A1780002014302480830FDF73AF970BD00001404000070B50D46044681B21C
:4068000001208002FDF72EF9210C0448FDF72AF981202946C000FDF725F970BD0404000070B5054600242846FDF716F9641CA4B2102CF8D370BD10B50C460146B020FDF7C2
:4068400011F9FF2021462D30FDF70CF910BD10B50C460146B020FDF705F9204600F0CCFD0021FDF7FFF810BD70B50C46054600F005F821462846FFF7DEFF70BD10B50C46B2
:406880000146B020FDF7EEF8FF2021462930FDF7E9F810BD10B50146B020FDF7E3F8FF20002220211D3000F07CFD10BD010210B54D310020FDF7D6F810BD000010B50402F6
:4068C0000029014608D0B020FDF7CCF8214675310020FDF7C7F810BDB020FDF7C3F8512000214001FDF7BEF800210348FDF7BAF821467631ECE70000240A000010B55421C4
:406900000020FDF7AFF810BD10B553210020FDF7A9F810BD10B5034908884880FFF7D0FE10BD00004202002010B502484088FFF7F3FE10BD4202002010B5FDF775F910BDD3
:4069400010B552210020FDF78DF810BD10B504461820FDF781F88004400F207010BD10B5B020FDF779F8C0B210BDF8B50E4601461C461546B020FDF775F8FF20E930FDF7FA
:406980006BF80746FF200130FDF766F83080FF200930FDF761F82880FF200530FDF75CF8208079070698490F0170F8BD10B5C820FDF752F810BD10B50C46002812D058205F
:4069C000FDF74AF82070000A60705C20FDF744F8A070000AE0706020FDF73EF82071000A607110BDFF20C130FDF736F82070000A6070FF20C530FDF72FF8A070000AE070C9
:406A0000FF20C930E8E770B504466820FDF724F806466C20FDF720F805467020FDF71CF82670310A6170A570290AE1702071000A607170BD10B50446012905D01820FDF793
:406A40000BF8C00B207010BD4820FDF705F88007C00FF7E70120C002704710B50C460146B020FCF7FFFF0321A0014902401810BD8821074B414310B5C918FF2260314A77D8
:406A80000A7700228A77114600F038FA10BD00009C13002088225043074A10B58018FF21603041770177002181770448418EFF201D3000F06BFC10BD9C1300204813002044
:406AC00010B50C460146B020FCF7CCFFFF202530FCF7C2FF0222214600F002F810BD000010B50023884201D8081A03E00024E443201A4018044980B2884201D8824200D914
:406B00000123184610BD0000FF7F0000F8B503465078167800020643D07895780002054350791779000288240743002900D098241946B020FCF796FF31462046FCF792FF34
:406B4000201D2946FCF78EFF204608303946FCF789FFF8BDFFB581B014460D4606460A9FFFF77BFF3B460021049AFCF75BFF02484019845505B0F0BD4602002070B5064661
:406B80000D4611242520A40108214001FCF76AFF2B46324600212046FCF744FF70BD70B5212405466401FFF7AFFE10232A4600212046FCF737FF70BD10B50446407821782D
:406BC000000201438F20C000FCF74CFFE078A178000201430148FCF745FF10BD7C04000010B50C460146B020FCF73CFF802021460143FF202930FCF735FF10BD70B50D4693
:406C00000146B020FCF72EFFFF241D342046FCF723FF01090901FF202943013001432046FCF720FF70BDF8B500242646012807D0032802D0052808D105E002240A2604E016
:406C400004240C2601E004240D26492701463F013846FCF707FF25204001FCF7FDFEC5B228462042F7D0252031464001FCF7FAFE00213846FCF7F6FE2846F8BD70B50D4685
:406C8000044601461646B020FCF7ECFE512029464001FCF7E7FE31460648FCF7E3FE032189030820FFF71CFD210275310020FCF7D9FE70BD240A000070B50D4604460146AA
:406CC000B020FCF7CFFEFF2029461930FCF7CAFE21024B310020FCF7C5FE70BD70B5491E8CB205460146B020FCF7BCFEFF2021461930FCF7B7FE29024C310020FCF7B2FE15
:406D000070BD0000054910B5884200D908460146FF206130FCF7A6FE10BD0000FF0F0000054910B5884200D908460146FF206530FCF798FE10BD0000FF0F000070B5882584
:406D40001446002900D098250146B020FCF78AFE2846FCF781FE2070000A6070281DFCF77BFEA070000AE07028460830FCF774FE2071000A607170BD10B5144602461120D0
:406D80000B4680010021FCF739FE012C01D1FFF7B5FD10BD10B504460920C001FCF75CFE2070000A60700448FCF756FEA070000AE070FFF7A3FD10BD8404000001218140C7
:406DC00010B589B200227C2000F0EBFA10BD000070B5FF210120FFF75BFCFF210820FFF757FC3020FFF76CFC80210020FCF73AFE002211460320FCF757FE374DFF20A98D98
:406E0000D530FCF72FFE0024FF26F1362146B020FCF728FE298F3046FCF724FE2046FFF739FE641C2406240EF0D0FF20A98FF930FCF718FE28481030044600F079F92046B0
:406E400000F0BEF900F04CF8234CB82040346188FCF708FEA188BC20FCF704FEE188C420FCF700FEFF20698EE130FCF7FBFDA12000210001FCF7F6FD3920FFF74DFCFFF7F9
:406E800043FD93200721C000FCF7ECFDFFF736FDE020FFF7C5FCE820FFF7C2FCF020FFF7BFFC0020FEF7AAF8618A0C48FCF7DAFD0A482821001DFCF7D5FDFF210131AC2063
:406EC000FCF7D0FD832000218000FCF7CBFD5B210020FCF7C7FD70BD48130020140A000010B500217C20FCF7BDFD00217820FCF7B9FD74210020FCF7B5FD10BD70B50D468A
:406F000001461446B020FCF7ADFDFF261D363046FCF7A2FD01090901FF20294301308143002C01D1102041403046FCF79BFD70BDF3B589B0FF2001900D20800100904878C3
:406F40000D7800020543C8788E780002064348790979000201437C200791FCF77DFD06907820FCF779FD059074210020FCF77AFD18480024049026E00120A04087B200984C
:406F8000FCF76AFD03900098FCF766FD02900098FCF762FD039A29465140029A72401143079A424011430BD10698074208D00598E040C1070998C90F814201D1019405E01C
:406FC000641C0498E4B20078A042D5D801980BB0F0BD00008813002070B5FF257C20FCF73BFD0849002401230A7805E01946A140014205D0641CE4B2A242F7D8284670BD50
:407000002546FBE78813002010B504461820FCF723FD0721C90288436107890C01431820FCF720FD10BD10B50446E020FFF7F8FB20782246401CC3B20021E020FCF79EFC63
:4070400010BD000010B5044641790079042817D040000843A17B032901D8C9000843617B4A010243A079010207201143C00201431820FCF7F7FC21881C20FCF7F3FC10BD73
:4070800008460149E5E700000204000010B5012000F02EF90120FFF713FB41210020FCF7E1FC10BD10B5002000F022F90120FFF733FB40210020FCF7D5FC10BD10B50C46C7
:4070C0000146B020FCF7CEFCFF2021460D30FCF7C9FC10BD70B50C4601461E461546B020FCF7C0FCE92021468000FCF7BBFC75202946C000FCF7B6FCEB2031468000FCF780
:40710000B1FC6C433B20A1B20001FCF7ABFC70BD70B50C4601461546B020FCF7A3FC21468420FCF79FFC29468020FCF79BFC70BD10B504464078217800020143FF20C130ED
:40714000FCF790FCE078A17800020143FF20C530FCF788FC6079217900020143FF20C930FCF780FC10BD70B5A124054624012046FCF772FC012D07D041084900814202D0F4
:407180002046FCF76FFC70BD014601221143F5E710B5044640782178000201436820FCF761FCE078A178000201436C20FCF75AFC60792179000201437020FCF753FC10BDE2
:4071C00010B5044640782178000201435820FCF749FCE078A178000201435C20FCF742FC60792179000201436020FCF73BFC10BD10B50446E820FFF713FB20782246401C2E
:40720000C3B20021E820FCF7B9FB10BD10B50C460146B020FCF726FC21460248FCF722FC10BD00001C0A000010B50C460146B020FCF718FCFF2021460530FCF713FC10BD85
